:030000000200B843
:03000B00020EC41E
:03002300020B3994
:03003300021F7930
:03004B00020F9A07
:03007B0002153734
:1000AB0043B20853B2FB43B28053E77F3275FFDE96
:1000BB0075FFAD75B16743B203E5B230E4FB43E7BF
:1000CB008053F77F7581B075D00012055F7563FFA4
:1000DB00120801E563D2E5F563E56390EFFBF012DF
:1000EB0003741203CD120801C299C2987412B41290
:1000FB000CE56754F8F56790EFFCF08008C284C2FA
:10010B0083C2828000753C007405B4052F121F5703
:10011B001221FE800B122157E52C54F0F56580F56A
:10012B00D2AFD28CD2A9B2861220DAE53BB455F00D
:10013B001221FE1220DAE53C60F68005120AE180FE
:10014B0003120A84C299C298D2AC74FFD5E0FD7435
:10015B00FFD5E0FD74FFD5E0FD12080174FFD5E07B
:10016B00FD74FFD5E0FD74FFD5E0FDD2ACD2A9D272
:10017B008C12083474FFD5E0FD74FFD5E0FD74FFDD
:10018B00D5E0FD74FFD5E0FD1217F6121503121919
:10019B009BD2EF00D2ACD2A9D28CD2EFB2868528FB
:1001AB00A0E56390EFFBF0E56190EFF9F0E562906D
:1001BB00EFFAF0E565F5B0E566F5847410B410035D
:1001CB001221A612085230300620290312110912EF
:1001DB002237304F07121F29C24F800A30500712A7
:1001EB001F45C2508000120205120841120801740B
:1001FB0005B40503121DFF02019F3056051206F6CA
:0D020B00C256300470201F051206F68072E6
:10021800E531B415004005753114E531900000F55D
:10022800F0C3E58235F0F582E5833400F583E0E537
:10023800407005E0F540800BE0B540028005F540D0
:100248001206A8E533B418004005753317E5339056
:100258000030F5F0C3E58235F0F582E5833400F52A
:1002680083E0E5417005E0F5418017E0B541028083
:1002780011F5411206A8800A301F07120794C21F01
:10028800C2591216097478B4DC030202DD301A1E52
:10029800E55530E640301A16201D3A202437202F25
:1002A800341216E4D22FE537547FF5378027E562FC
:1002B80020E71312182E12175E1217F6C27530199E
:1002C800051217FA8000C22FC224207203301905C4
:1002D8001217E98000301B08201E0B1217BB802C58
:1002E800301E291217CBE532B53F02801FE53FB417
:1002F80003004013E532B40300500C1217CBD21E92
:10030800D2533053FDD21EC253121C9F7405B4053C
:1003180007E53930E0028014201F1D30030E8018D5
:10032800202015C21FC20412183B800C2026F13071
:100338002006121AFD121A1C02036220250E30280C
:1003480019121B49202003121A1C800E20280B1298
:100358001B412020031219E98000300208202B0BD2
:10036800121B518006302B03121B6F22C2D5787FD7
:03037800E8F6663E
:10037B006002D2D518E8B420F5787F7600D8FCC29D
:10038B00D590000075F055E0F530E5F0F00000E099
:10039B0065F07010E530F0A3E583B403EAE582B4B1
:1003AB00FFE580030080FE900FFFE4F0E582C3942D
:1003BB0001F582E5839400F58370EFE58270EBE441
:1003CB00F0220203E07DA57E00DEFE7E00DEFE7ED7
:1003DB0000DEFEDDF2755101755202755303755443
:1003EB0004755505755601755707753800900065EE
:1003FB007400F07530009000667400F09000677424
:10040B0000F0C212C219C21AC21BC21CC21DC21EEC
:10041B00C221C222C223C224C229C258C225C22869
:10042B00C22AC22FC230D216C233C231C232C23438
:10043B00C235C236C237C238C239C24CC24DC26E87
:10044B00C26FC26DC268C269C26AC26BC253120765
:10045B00A0122099756F02753A02754200754030F3
:10046B00120DB274FFD5E0FD74FFD5E0FD754300AE
:10047B00754130120E3B74FFD5E0FD74FFD5E0FDE6
:10048B00756F00753A0075421F75401F75431F75D8
:10049B00411F755800756A00753100753300753F43
:1004AB00007532029000667400F09000677400F0E3
:0904BB0075680075690075444084
:1004C40090006A7400F09000697400F07572007511
:1004D4007000757100753E00C23AC21FC22CC24F33
:1004E400C25090007D7400F090007E7400F0900083
:1004F4007A7400F0754A00754B00754C00C2517552
:100504006B00C259756C00756D00C254E53754FF19
:10051400C2E4C2E5F537C2559000747407F0900048
:100524007574FFF0C2577400900078F0900079F071
:100534007400900076F0900077F0C270C271C277B8
:10054400C273C274C275C2059000747407F090003F
:100554007574FFF090007C7410F0227405B40511DA
:1005640075E10675E20075E34075BDFF75A4498029
:100574001175E10475E20075E34075BDFF75A4FFD4
:10058400800075A50075A6FF75A7FF75B5FF75A357
:100594003475A1D77596FF7585FF7586FF7598D05C
:1005A40075880575CBFF75CAFA75CCFA75CDFF75DC
:1005B400C83475D90175DA4875E90075F90075EA2A
:1005C4000075FA0075D8C075E60875F6087405B4A8
:1005D400050F759A0075F809759D0A43E60943F6F7
:1005E4000975891175B81875A88075870022756F0B
:1005F40002753A02754200754030120DB27543001F
:10060400754130120E3B756F00753A0075421F75C7
:10061400401F75431F75411F205204E53180027449
:100624000A304E02740EB415004005753114E531DC
:05063400900000F5F04C
:10063900C3E58235F0F582E5833400F583E0B54002
:10064900028005F540120DB2205204E53380027490
:1006590008304E02740D306803120693306A031293
:100669000693B418004005753317E533900030F54B
:10067900F0C3E58235F0F582E5833400F583E0B512
:1006890041028005F541120E3B22E53930E0089020
:100699000062E0540F8007900062E0C4540F2230DA
:1006A900014BE53754FFD2E6F5370206E67DFF7EBA
:1006B900FFDEFE120852B2868528A0DDF27DFF7E9C
:1006C900FFDEFE120852B2868528A0DDF27DFF7E8C
:1006D900FFDEFE120852B2868528A0DDF27DFF7E7C
:1006E900FFDEFE120852B2868528A0DDF202072439
:1006F900204E282052258023120782F5F07400D558
:10070900E0FDE065F07014E5F0F55330E60DC2A0A8
:10071900C2A4C240C24412199B8059C203C226C254
:100729002090007B7455F09000687464F01205F213
:10073900D2A4D2447400D5E0FDD2A0D240D21FE5A4
:100749003754FFC2E6F537227DFF7EFFDEFE120831
:1007590052B2868528A0DDF2204E182052151207C4
:1007690082F55330E60DC244C2A4C2A0C240121998
:090779009B800122C204C21F2270
:100782007410B41006907FC2E08006907FC2E0B27F
:10079200E522743FD5E0FDC2A4C244C21F227560A7
:1007A200C0E56090EFF8F0756140E56190EFF9F017
:1007B200756208E56290EFFAF0756322E56390EFE7
:1007C200FBF074EEF564E564F5A0F528756500E5C7
:1007D20065F5B0F565E58454E0441FF566F584746B
:1007E20012B4120EE56754F84407F56790EFFCF077
:1007F200800CE58054E3441CF567F580800022906C
:100802007FC3E0F5F07F64DFFEE065F070F1E5F0B4
:1008120054796479600E20160BE563D2E6F5639095
:10082200EFFBF022E563C2E6F56390EFFBF01217EF
:10083200FA22E561D2E3F56190EFF9F0D2072220C6
:10084200070122E561D2E3F56190EFF9F0D20722C8
:10085200200822200922200A22200B22200C2220FA
:100862000D22200E22200F22203D22203E22203F58
:1008720022206B222202089B0208C10208EF020911
:100882001502093B02096102098F0209B50209EA50
:10089200020A10020A36020A5CE551F5F0D210C2D1
:1008A2009BF599B2862010FB7455D5E0FDD210D28B
:1008B2009BE5F07441F599B2862010FBC20822E54F
:0708C20052A24C92E2A24D8C
:1008C90092E3F5F0D210C29BF599B2862010FB7421
:1008D90055D5E0FDD210D29BE5F07442F599B28668
:1008E9002010FBC20922E553F5F0D210C29BF599FD
:1008F900B2862010FB7455D5E0FDD210D29BE5F0ED
:100909007443F599B2862010FBC20A22E554F5F02A
:10091900D210C29BF599B2862010FB7455D5E0FD23
:10092900D210D29BE5F07444F599B2862010FBC22F
:100939000B22E555F5F0D210C29BF599B28620102D
:10094900FB7455D5E0FDD210D29BE5F07445F599BD
:10095900B2862010FBC20C22E556A29192E7A29022
:1009690092E6F5F0D210C29BF599B2862010FB747D
:1009790055D5E0FDD210D29BE5F07446F599B286C3
:100989002010FBC20D22E557F5F0D210C29BF59954
:10099900B2862010FB7455D5E0FDD210D29BE5F04C
:1009A9007447F599B2862010FBC20E22902512E4F5
:1009B90093540FF5F0E53754F045F0F537F5F0D2DB
:1009C90010C29BF599B2862010FB7455D5E0FDD273
:1009D90010D29BE5F07448F599B2862010FBC20F3E
:1009E90022E546F5F0D210C29BF599B2862010FB9C
:0B09F9007455D5E0FDD210D29BE5F054
:100A04007449F599B2862010FBC23D22E547F5F002
:100A1400D210C29BF599B2862010FB7455D5E0FD27
:100A2400D210D29BE5F0744AF599B2862010FBC22D
:100A34003E22E549F5F0D210C29BF599B28620100A
:100A4400FB7455D5E0FDD210D29BE5F0744BF599BB
:100A5400B2862010FBC23F22E548E52DF5F0D21006
:100A6400C29BF599B2862010FB7455D5E0FDD210D7
:100A7400D29BE5F0744CF599B2862010FBC26B2230
:100A84007800B2861220DA10980AD8F8B286780074
:100A9400D8FE80F0E599643470EA7806D8FEE53C27
:100AA400540F44A0F5991220DA3099FAC2997820AB
:100AB400D8FE78001220DA109804D8F880F6E59968
:100AC400646670F07806D8FE7455F5993099FDC2C5
:100AD40099C298B2867455F5993099FD227800B27E
:100AE400861220DA10980AD8F8B2867800D8FE80E8
:100AF400F0E599643470EA7806D8FE7599111220ED
:100B0400DA3099FAC2997820D8FE78001220DA10E7
:100B14009804D8F880F6E599646670F07806D8FEF3
:100B24007455F5993099FDC299C298B2867455F5F9
:100B3400993099FD22C2AFC0E0C0D0C083C082C04A
:010B4400F0C0
:100B450075D018B2861099138599F0109812D0F0C7
:100B5500D082D083D0D0D0E0D2AF32C210020B53B6
:100B6500020C2A20482C204953204A78E8B42B004F
:100B75005016E8240FF8E5F0F61211351213267514
:100B85003500753600020B53E875350075360002E1
:100B95000B5385F0728570F0C3900000E58235F047
:100BA500F582E5833400F583E572F00570E570B4F0
:100BB5001E07757000C248D257020B5385F0728527
:100BC50071F0C3900030E58235F0F582E58334009D
:100BD500F583E572F00571E571B41E05757100C206
:100BE50049020B5385F0728571F0C3900061E5826F
:100BF50035F0F582E5833400F583E572F00571E59E
:100C050071B4041B757100C24A900063E0F54D9004
:100C15000064E0543FF54EE53954CF454EF54E029C
:100C25000B53020B68309AFAE5F0B42507A8F0D209
:100C350033020B53B4AB05D206020B5330E52AA899
:100C4500F0B42605D213020B53B42705D214020BB8
:100C550053B42805D248020B53B42902D249B42B08
:100C650002D24A020B53020D4F20E6FA7860B40512
:100C75000BD201754500756900020B53B40611C20C
:100C850001754500756900E537547FF537020B534B
:100C9500B40705D202020B53B40805C202020B5376
:030CA500B4090B84
:100CA800203C05203B02D225020B53B40A05C2257D
:100CB800020B53B40B09D256D204C259020B53B4D7
:100CC8000C07C204D259020B53B40D03020B53B4E0
:100CD8000E03020B53B41115D21AC224C21DC22F1F
:100CE800E537547FF537C273C274020B53B4121739
:100CF800C21AC22FE537547FF537C224C224C27402
:100D0800C275D273020B53B41305D21B020B53B432
:100D18001405C21B020B53B41507D24FC250020B65
:100D280053B41604C24FD250B4170BD276C272C253
:100D380074C275020B53B4180BD272C273C276C256
:100D480075020B53020B53B44105D208020B53B47E
:100D58004205D209020B53B44305D20A020B53B41D
:100D68004405D20B020B53B44505D20C020B53B405
:100D78004605D20D020B53B44705D20E020B53B4ED
:100D88004805D20F020B53B44905D23D020B53B4A8
:100D98004A05D23E020B53B44B05D23F020B53B463
:100DA8004C05D26B020B53020B53C2A5C245C2A716
:100DB800C2477E0ADEFEE540F5F0B54200400CC3AE
:100DC8009542C2A6C24685F042800ED2A6D246F50A
:100DD800F0E542C395F085F0427005C2A5C24522F0
:100DE8007EFFDEFED2A5D245FFC2A7C2477D307E78
:100DF80010DEFE120852B2868528A0DDF2D2A7D2F4
:030E0800477D26FD
:100E0B007E10DEFEB2868528A0120852DDF2C2A744
:100E1B00C2477E20DEFEDFCEC2A5C2457D307E609E
:100E2B00DEFE120852B2868528A0DDF2756F002215
:100E3B00C2A3C243C2A1C2417E1EDEFEE541F5F054
:100E4B00B54300400CC2A2C242C3954385F0438018
:100E5B000ED2A2D242C3F5F0E54395F085F0437074
:100E6B0005C2A1C24122D2A1D2417EFFDEFEFFC24A
:100E7B00A3C2437D307E20DEFE120852B286852847
:100E8B00A0DDF2D2A3D2437D267E20DEFEB2868584
:100E9B0028A0120852DDF2C2A3C2437E37DEFEDF6A
:100EAB00CEC2A1C2417D307E30DEFEB2868528A047
:100EBB00120852DDF2753A0022C2AFC0E0C0D0C0BA
:100ECB0083C082C0F0D2AFB28675D010758A6A75B6
:100EDB008CFCE56390EFFBF0E56290EFFAF0121DEE
:100EEB0041122211201A22E53754FFC2E4C2E5F564
:100EFB00377400900078F0900079F0C2777400900E
:100F0B000076F0900077F0C27090007CE0122332F4
:100F1B0090007C7410F0800490007CF012243774E5
:100F2B0005B40103122481203003020F5F120782E4
:100F3B00F55BF553E55330E203020F54120782F5CC
:060F4B005BF5531222FCCD
:100F51001222B200E55530E502D2181224C7E55637
:100F6100800B30E108121128D2171217FAE556301A
:100F7100E012201615D216C23012182E75444012F6
:100F810011288006C216D2308000C2AFD0F0D082C4
:100F9100D083D0D0D0E0D2AF32C2AFC0E0C0D0C099
:100FA10083C082C0F0C2DFD2AF75D010B28675E9BE
:100FB1000075F9003091031217FA900068E070088B
:100FC10090007B7400F08006900068E014F09000BF
:100FD1007EE0B40D00502690007DE0C33401F09016
:100FE100007EE03400F0305414E56DB40700500D7C
:100FF100E56CC33401F56CE56D3400F56DE55680A3
:101001002430E1211217FA90006AE0C33401F09014
:101011000069E03400F0B40218E563C2E5F56390BD
:10102100EFFBF0800C90006A7400F090006974008E
:10103100F03016190210E6E53A64026005E53A045B
:10104100F53AE56F64026005E56F04F56F30531CF6
:10105100E56B04F56BE56BB42812C253800EE561B4
:10106100D2E4D2E6F56190EFF9F0C253303317E5DF
:101071006904F569E569B40A0DE545045403F545CC
:0C108100121B8A75690020310620320322
:10108D000210C0E56804F568E568B40A2630311031
:10109D00E561D2E1C2E2F56190EFF9F0C231801362
:1010AD00303210E561C2E1D2E2F56190EFF9F0C2A4
:1010BD003280000210E6E5446003D5E01AD23030EC
:1010CD002F13302403301C091218077400F54480C7
:1010DD00081217F6007490F544C2AFD0F0D082D04C
:1010ED0083D0D0D0E0D2AF3212175EE562C2E0C23B
:1010FD00E7C2E1F56290EFFAF0C2292230301B749D
:10110D0078B47805E55320E211E55530E60CE5623B
:10111D00D2E1F56290EFFAF0D22922E562C2E1F553
:10112D006290EFFAF0C2292220130122C213E53595
:10113D0060F954A0B4A008E535F54C75350022E5ED
:10114D0035B4800BE561D2E0F56190EFF9F022B492
:10115D008112E561C2E2F56190EFF9F0756800D298
:10116D0031C23222B48212E561C2E1F56190EFF92C
:10117D00F0C231D23275680022B4830BE561D2E43E
:10118D00F56190EFF9F022B4840BE561D2E5F561DC
:10119D0090EFF9F022B4850BE561D2E6F56190EFA1
:1011AD00F9F022B4860BE561D2E7F56190EFF9F025
:0A11BD0022B4870DE562D2E0D2E70C
:1011C700F56290EFFAF022B4880BE562D2E2F5629D
:1011D70090EFFAF022B4890BE562D2E3F56290EF63
:1011E700FAF022B48A0BE563D2E5F56390EFFBF0E2
:1011F70022B48B0BE563D2E4F56390EFFBF022B4E6
:101207008C0BE562D2E6F56290EFFAF022B48D0B13
:10121700E562D2E7F56290EFFAF022B48E05D2A626
:10122700D24622B48F05D2A7D24722B49005D2A5C1
:10123700D24522B49105D2A4D24422B49205D2A3B6
:10124700D24322B49305D2A2D24222B49405D2A1AA
:10125700D24122B49505D2A0D24022B49603D2B38C
:1012670022B4970BE563D2E0F56390EFFBF022B46D
:10127700980BE563D2E1F56390EFFBF022B4990B8D
:10128700E563D2E2F56390EFFBF022B49A03D2B0A4
:1012970022B49B187412B4120EE56754FB4404F58C
:1012A7006790EFFCF08004D284800022B49C18740D
:1012B70012B4120EE56754FD4402F56790EFFCF097
:1012C7008004D283800022B49D187412B4120EE5F4
:1012D7006754FE4401F56790EFFCF08004D28280EA
:0E12E7000022B49E09E566D2E4F584F5662285
:1012F500B49F09E566D2E3F584F56622B4A009E555
:1013050066D2E2F584F56622B4A109E566D2E1F577
:1013150084F56622B4A209E566D2E0F584F5662275
:101325002220140122C214E53660F95460B4600825
:10133500E536F54C75360022E536B4400BE561C25D
:10134500E0F56190EFF9F022B4410BE561C2E1F5FA
:101355006190EFF9F022B4420BE561C2E2F56190CC
:10136500EFF9F022B4430BE561C2E4F56190EFF9C2
:10137500F022B4440BE561C2E5F56190EFF9F02286
:10138500B4450BE561C2E6F56190EFF9F022B4468C
:101395000BE561C2E7F56190EFF9F022B4470DE581
:1013A50062C2E0C2E7F56290EFFAF022B4480BE5BD
:1013B50062C2E2F56290EFFAF022B4490BE562C22F
:1013C500E3F56290EFFAF022B44A0BE563C2E5F566
:1013D5006390EFFBF022B44B0BE563C2E4F5639039
:1013E500EFFBF022B44C0BE562C2E6F56290EFFA32
:1013F500F022B44D0BE562C2E7F56290EFFAF022F8
:10140500B44E05C2A6C24622B44F05C2A7C24722A2
:0D141500B45005C2A5C24522B45105C2A4C1
:10142200C24422B45205C2A3C24322B45305C2A28B
:10143200C24222B45405C2A1C24122B45505C2A07F
:10144200C24022B45603C2B322B4570BE563C2E0D2
:10145200F56390EFFBF022B4580BE563C2E1F5634C
:1014620090EFFBF022B4590BE563C2E2F56390EF13
:10147200FBF022B45A03C2B022B45B167412B41247
:101482000CE56754FBF56790EFFCF08004C28480A2
:101492000022B45C167412B4120CE56754FDF567B1
:1014A20090EFFCF08004C283800022B45D167412B7
:1014B200B4120CE56754FEF56790EFFCF08004C2AD
:1014C20082800022B45E09E566C2E4F584F56622F4
:1014D200B45F09E566C2E3F584F56622B46009E506
:1014E20066C2E2F584F56622B46109E566C2E1F5F9
:1014F20084F56622B46209E566C2E0F584F56622E7
:101502002275D4007591007592CD7593F87594CDBE
:101512007595F853E7FE43910475E80475D1037598
:10152200BA0075BB0075BC70756EF0E4F55743E701
:101532000243F70222C2AFC0E0C0D0C083C082C063
:10154200F0D2AF75D008B286C2EDE5BEC328F8E589
:07155200BF540F39F97400CA
:101559003AFAE56EC39401F56E60030215E0756E03
:10156900F0E87880F608E9F608EAF6121D85788031
:10157900E6C4540FF5F008E6C454F045F0F557C336
:10158900E557B4E0005022C3E557B4DC005034906D
:1015990000677400F0900066E0B410051215EF8042
:1015A90030900066E004F080289000667400F090A6
:1015B9000067E0B430051215FC8016900067E0045E
:1015C900F0800E9000667400F09000677400F0805F
:1015D90000780079007A00C2AFD0F0D082D083D0F1
:1015E900D0D0E0D2AF32E562D2E2F56290EFFAF004
:1015F900D22A22E562C2E2F56290EFFAF0C22A220B
:10160900E53030E01A203C1E20251B203B0AC26829
:10161900C269C26AC24EC251D23B754AA18007C291
:101629003B754AA08000E53030E41A203B1E202596
:101639001B203C0AC268C269C26AC24EC251D23C6E
:10164900754A518007754A50C23C8000E53030E246
:1016590007754A31D2268005C226754A30E53030F1
:10166900E304D21A8004C21AC224E53030E604D257
:0E1679001B8002C21BE53030E704D21980024C
:10168700C219E530F5F090007AF07412B41218E53B
:10169700F0A2E092F7A2E292E0A2F792E2F5675495
:1016A7000790EFFCF08010E5F0A2E09284A2E192AF
:1016B70083A2E29282800090007AE0A2E392F4A2F1
:1016C700E492F3A2E592F2A2E692F1A2E792F0E5A4
:1016D7006654E053F01F45F0F584F56622E562C2D3
:1016E700E3F56290EFFAF0C21CC219C272E55330FB
:1016F700E203C21D2230E30122E562C2E0C2E2C278
:10170700E7F56290EFFAF0E563C2E1F56390EFFB6E
:10171700F0E553541860053090028016E563D2E077
:10172700C2E2F56390EFFBF0E561D2E7F56190EF78
:10173700F9F0D21DE53754FFC2E4C2E5F53774006E
:10174700900078F0900079F0C2777400900076F0FE
:10175700900077F0C27022E561C2E7F56190EFF97A
:10176700F0E563C2E0C2E2F56390EFFBF0C21D2231
:10177700E56320E016E56220E71120E00E20E20B8A
:10178700E563D2E1F56390EFFBF022E563C2E1F593
:101797006390EFFBF022E5325407A2E075F0009268
:0F17A700F2A2E192F1A2E292F0E56554F845F06A
:1017B600F5B0F565227478B47805E55320E2051294
:1017C6001C9FD21E22202C1AE565C2E3F5B0F565F2
:1017D600E532E561C2E4C2E6F56190EFF9F0C21EBA
:1017E600C25322E562D2E3F56290EFFAF0D272229A
:1017F60020720122E562D2E3F56290EFFAF0D21C84
:1018060022202E13200103301A0DE562C2E3F56291
:1018160090EFFAF0C21C221217F622E562D2E0F52A
:101826006290EFFAF0D22D22E562C2E0F56290EF07
:10183600FAF0C22D22756F02753A027542007540A4
:1018460030120DB2754300754130120E3B756F00B4
:10185600753A0075421F75401F75431F75411F7409
:101866000E304E02740E900000F5F0C3E58235F09E
:10187600F582E5833400F583E0F540D2A4D2441224
:101886000DB27400D5E0FDD2A0D2407403900030B2
:10189600F5F0C3E58235F0F582E5833400F583E0A3
:1018A600F541120E3B7400D5E0FDE565D2E3F5B0D7
:1018B600F5657400D5E0FD7400D5E0FD74065407A7
:1018C600A2E075F00092F2A2E192F1A2E292F0E5B6
:1018D6006554F845F0F5B0F5657400D5E0FD740083
:1018E600D5E0FDE561D2E5C2E6F56190EFF9F0D20B
:0118F60020D1
:1018F70022756F02753A02754200754030120DB2BB
:10190700754300754130120E3B756F00753A0075CF
:10191700421F75401F75431F75411F740E304E02DD
:10192700740E900000F5F0C3E58235F0F582E5838B
:101937003400F583E0F540D2A4D244120DB274000E
:10194700D5E0FDC2A0C2407400D5E0FDE565D2E355
:10195700F5B0F5657400D5E0FD7400D5E0FD7406BB
:101967005407A2E075F00092F2A2E192F1A2E2928E
:10197700F0E56554F845F0F5B0F5657400D5E0FD80
:101987007400D5E0FDE561D2E5C2E6F56190EFF9B7
:10199700F0D22022756F02753A0275420075403009
:1019A700120DB2754300754130120E3B756F00750D
:1019B7003A0075421F75401F75431F75411FD2A01E
:1019C700D2407403900030F5F0C3E58235F0F5821C
:1019D700E5833400F583E0F541120E3B7400D5E052
:1019E700FD2212199B22756F02753A027542007526
:1019F7004030120DB2754300754130120E3B756FC2
:101A070000753A0075421F75401F75431F75411FCA
:101A1700C2A0C24022756F02753A02754300754134
:101A270030120E3B756F00753A0075431F75411FE5
:101A37007412B4180040057533177412900030F50E
:101A4700F0C3E58235F0F582E5833400F583E0B530
:061A570041028005F5418B
:101A5D00120E3BD2A0D2407DA07EFFDEFE120852B8
:101A6D00B2868528A0DDF2C2A4C24422743FD5E01F
:101A7D00FDC2A4C244C220C21F22756F02753A0274
:101A8D00754300754130120E3B753A0075431F7555
:101A9D00411FE533B41800400575331774129000DB
:101AAD0030F5F0C3E58235F0F582E5833400F5833A
:101ABD00E0B541028005F541120E3BD2A0D2407433
:101ACD0000D5E0FD7400D5E0FDC2A4C244E565C2B9
:101ADD00E3F5B0F5657400D5E0FD7400D5E0FDE5E6
:101AED0061C2E5C2E6F56190EFF9F0C220C21F2296
:101AFD00C253E565C2E3F5B0F5657400D5E0FD743C
:101B0D0000D5E0FDE561C2E5C2E6F56190EFF9F0C3
:101B1D00C220C21F22E565C2E3F5B0F5657400D59C
:101B2D00E0FD7400D5E0FDE561C2E5C2E6F561902A
:101B3D00EFF9F022D2137535AFD22822D2147536B3
:101B4D006FC22822302B01221206F67400D5E0FD5B
:101B5D007400D5E0FDE563D2E4F56390EFFBF0D2C0
:101B6D002B22202B01227400D5E0FD7400D5E0FD61
:101B7D00E563C2E4F56390EFFBF0C22B2220010474
:101B8D00021C20223033FCC231C232E534B40C3990
:051B9D00E545B401154F
:101BA200E561C2E1F56190EFF9F0E562C2E4F56248
:101BB20090EFFAF022B4020BE561D2E2F56190EF08
:101BC200F9F022B4030AE561D2E0F56190EFF9F091
:101BD20075450022B40D0280C2B40E3DE545B40144
:101BE20015E561C2E2F56190EFF9F0E562C2E4F554
:101BF2006290EFFAF022E545B4020BE561D2E1F51D
:101C02006190EFF9F022E545B4030AE561D2E0F50F
:101C12006190EFF9F075450022B40F0280BEB41056
:101C22003DE545B4010BE561C2E2F56190EFF9F0E3
:101C320022E545B40215E561C2E1F56190EFF9F0E4
:101C4200E562D2E4F56290EFFAF022E545B4030AC8
:101C5200E561D2E0F56190EFF9F075450022E545C6
:101C6200B40115E561C2E1F56190EFF9F0E562C2F8
:101C7200E4F56290EFFAF022E545B4020BE561C2A9
:101C8200E2F56190EFF9F022E545B4030AE561C29D
:101C9200E0F56190EFF9F0754500C2332200E532BC
:101CA2005407A2E075F00092F2A2E192F1A2E29250
:101CB200F0E56554F845F0F5B0F5657400D5E0FD42
:101CC2007400D5E0FD7400D5E0FDE565D2E3F5B022
:061CD200F565E532F53F67
:101CD800E5327017E565C2E3F5B0F565E532E56113
:101CE800C2E4C2E6F56190EFF9F022B40300400FB8
:101CF800E561D2E4C2E6F56190EFF9F0C25322E55E
:101D0800325407A2E075F00092F2A2E192F1A2E249
:101D180092F0E56554F845F0F5B0F565E561D2E473
:101D2800D2E6F56190EFF9F0756B0022E561D2E437
:101D3800D2E6F56190EFF9F022907FC0E0F5599076
:101D48007FC1E0F55A120782F55BF553907FC3E037
:101D5800F55C907FC4E0F55D907FC5E0F55E855940
:101D680051855A52855B53855C54855D55855E5611
:101D7800C234C235C236C237C238C239227CF07D7D
:101D880000ED7003EC6033E4FBFA7928B286121D8B
:101D9800C5EA9CF8EB9D400CC0E0E8788006F8D0D6
:101DA800E0FBE8FAD9E6EB33400EEA33FAEB339D71
:101DB80040067004EA9D4000E42274FF22C3788044
:101DC800E633F608E633F608E633F608E633F608AF
:021DD800E633F0
:101DDA00F6EA33FAEB33FB22C2AF75B601758F010F
:101DEA0090FDFEE4F090FDFFF0758F00D2AF2274F3
:101DFA0016D5E0FD22E52FB5480122E54854C0601A
:101E0A00F9B4C00280F485482FE52FB48105D24C7D
:101E1A00C24D22B48205C24CD24D22B4851E021E86
:101E2A003B85323EE53254F84406F5321217BBC2FE
:101E3A001E202C17D22C1218F8C22022B4861502A2
:101E4A001E55E53EF5321217CBD21E302C05C22C98
:101E5A00121B2222B4831F204E1BD21FD24E853161
:101E6A005885336A75310E75330DD2041206F6C2DF
:101E7A0004C21FD25122B48417305113C251C21F57
:101E8A00C204C22CC24E855831856A33121A87227F
:101E9A00B4872320681FD21FD268C269853158854A
:101EAA00336A753100120693F533D2041206F6C26C
:101EBA0004C21FD25122B48819206915D269C21FDF
:101ECA00C204C22CC24E855831856A33C268121ABE
:101EDA008722B48921206A1DD21FD26A853158858A
:101EEA00336A753103120693F533D2041206F6C229
:101EFA0004C21FD25122B48A07D26EC26FC26D22A7
:101F0A00B48B07C26ED26FC26D22B48E07C26EC284
:0B1F1A006FD26D22B48C07C26EC26F44
:101F2500C26D2222D21FC24ED25285315885336AE4
:101F350075310A753308D2041206F6C204C21F228F
:101F4500C21FC204C24EC252855831856A33121A65
:101F55007922E53954C1F54B784A797375F000E675
:101F6500F7C335F0F5F00809B84FF47878A6F074A2
:101F750000F59B22C2AFC0D0C0E0C083C082C0F0D4
:101F8500D2AF75D010E5F854E0B4802EE5F8540FC3
:101F9500C2E7F5F8E5F820E2FBE53BB45503021F7F
:101FA500CDB46603021FC2E59BB4AA0A74AAF59BC9
:101FB500753B550220827400F59B022082E59BB497
:101FC500AAF4753B55022032753B55E57FB40500F3
:101FD50040028003022026E59BB4FE028003022016
:101FE50032757F007846797A75F000E7F6C335F0EB
:101FF500F5F00809B84AF4757F00787EE6B5F01E5D
:102005007846797A75F000E7F60809B84AF9E5489F
:1020150054C0B4C006E548540FF53C0220320220F6
:1020250032787AE57FC338F8E59BF6057FE579B424
:1020350006004029E53954C1F54B54C06002F5F05E
:10204500757900784A797375F000E6F7C335F0F5D0
:0A205500F00809B84FF47878A6F0FF
:10205F000220767873E579C338F87410D5E0FDE681
:10206F00F59B057902208A7410D5E0FD74FDF59B70
:10207F0002208AE5F8540FC2E7F5F8C2AFD0F0D0CE
:10208F0082D083D0E0D0D0D2AF327800902513E841
:10209F0093F5F0900000C3E58238F582E5833400B4
:1020AF00F583E5F0F008B819E3780090252FE89351
:1020BF00F5F0900030C3E58238F582E5833400F502
:1020CF0083E5F0F008B819E378002222907FC5E08D
:1020DF0085565EF556E55630E10DE563C2E5F563CD
:1020EF0090EFFBF01217FA22C2B5C265C2B7C267F2
:1020FF007E0ADEFED2B5D265741FC395F0FFC2B75C
:10210F00C2677D307E10DEFE120852B286852CB07B
:10211F00DDF2D2B7D2677D267E10DEFEB286852C29
:10212F00B0120852DDF2C2B7C2677E20DEFEDFCEEC
:10213F00C2B5C2657D307E60DEFE120852B2868562
:10214F002CB0DDF2756F002285652CC2B6C26675A4
:10215F006F02753A0274017400F5F01220F78024B3
:10216F00D2B6D266756F02753A027401900000F50F
:0F217F00F0C3E58235F0F582E5833400F583E0A7
:10218E00F5F01220F7D2B4D264E565540FF5F0E500
:10219E002C54F045F0F5652220165430574E8565C7
:1021AE002CC2B6C266756F02753A0274017400F5E0
:1021BE00F01220F7D2B6D266756F02753A0274012C
:1021CE00900000F5F0C3E58235F0F582E58334002A
:1021DE00F583E0741CF5F01220F7D2B4D264E565F5
:1021EE00540FF5F0E52C54F045F0F565C257222258
:1021FE0078FF790AD8FED8FED8FED8FE7854D8FEDD
:10220E00D9F222E56220E01620E21320E710E56302
:10221E0020E00BE563440290EFFBF0F56322E563EB
:10222E0054FD90EFFBF0F5632220763120722E30B4
:10223E00732B207514E562C2E0F56290EFFAF0E5BB
:10224E0062D2E3F56290EFFAF0E55320E521121821
:10225E0010C21CC219C272C21AC273D27420760C7A
:10226E0020750C3076092074062073031222C220CA
:10227E00753120911A201D2B20762820722530735F
:10228E0022E55330E51A90007EE0B40500401412AA
:10229E0017FA90007D7400F090007E7400F08003B9
:1022AE001218102222E55330E30912175E1222F1A2
:1022BE0012182122E55330E515E562D2E7F562905A
:0C22CE00EFFAF0E563C2E0F56390EFFB6F
:1022DA00F022E562C2E7F56290EFFAF0E563D2E038
:1022EA00F56390EFFBF022E562C2E7F56290EFFA40
:1022FA00F022307732900079E0B402004018C277B9
:10230A007400900078F0900079F0E563C2E2F5631A
:10231A0090EFFBF08011C3900078E03401F0900058
:10232A0079E03400F0800022E55330E2081217FA0F
:10233A00D27102240030710BE5535418700512183B
:10234A0010C271E5535418603220902FE561C2E73C
:10235A00F56190EFF9F0E563C2E0D2E2F56390EF40
:10236A00FBF0E562D2E0C2E7F56290EFFAF0E562CF
:10237A00C2E6F56290EFFAF0022400E553541870B1
:10238A001C309019E563D2E2F56390EFFBF0E56249
:10239A00D2E6F56290EFFAF0D277022400E55354C0
:1023AA0018603A309037E563C2E2F56390EFFBF0CC
:1023BA00E562D2E0C2E7F56290EFFAF0E561C2E7C2
:1023CA00F56190EFF9F0E563C2E0F56390EFFBF099
:1023DA00C276D275E5374480F537022400E55354B6
:1023EA0018701020900DE563C2E2F56390EFFBF0E0
:1023FA0002240002240022307032900077E0B402F6
:05240A00004018C27043
:10240F007400900076F0900077F0E563C2E2F56318
:10241F0090EFFBF08011C3900076E03401F0900054
:10242F0077E03400F0800022300643C206E538041E
:10243F00F538B40A3CC206E563C2E5F56390EFFBDD
:10244F00F0B2867400F5A07400C2E590EFFBF07453
:10245F000090EFF9F07400D2E3F56290EFFAF0120A
:10246F0017FA7400F5B07400F584C2AF80C7E4F5B5
:10247F003822120782F55BF553E55330E62A9000B8
:10248F007BE064556022E539D2E0F539D2587565A5
:10249F0000301F23300100C2A0C2A4C240C244C2F8
:1024AF001FC20412199B800FC258E539C2E0F539DB
:1024BF007565008002056522E55520E61D20542F25
:1024CF00E56130E70302250412175E121128756CBF
:1024DF0000756D00D254E555801D305418E56DB46C
:1024EF000713121109301A031216E4C2548006752D
:1024FF006C00756D00E55520E70812182E1217CBEA
:10250F00800022161F1A19181716151413121110FE
:10251F000F0E0D0C0B0A0908070605040302010034
:10252F001F1F1F1F1E1D1C1B1A1918171512111004
:10253F000F0E0D0C0E0D0C0B0908070605040302F8
:00000001FF
