:030000000200A655
:03000B0002096E79
:030023000209F3DC
:0300330002CB2FCE
:03004B00020EB5ED
:0300730002B705CC
:03007B0002D6FBAF
:01008300324A
:1000A300020BFDC2B7C2AF7581C075D00075FFDE0C
:1000B30075FFAD7596011206751206B212066874C5
:1000C30000B400FDC2B7758400759A4375F80B75CB
:1000D3009D1775840F75A1EE758400C2AF0200E30E
:1000E30012B38F30D503757A17C2B712B3A630D5C2
:1000F30003757A1890212CE0B433028003127776CB
:10010300E553B4CC0012B3E8C2ACC21A7400900336
:100113002BF0F5BBE5E854CF4410F5E890064574A1
:1001230055F07452B4520312086AB2B6758401E5ED
:100133009854FCF59875840043F74043E74074FFF7
:10014300D5E0FD90031A7401F0124DE012C15A7408
:10015300FFD5E0FD74FFD5E0FD74FFD5E0FD120689
:10016300E1B2B612B48612D75712AB2C90031A74AD
:1001730003F0124DE0E5E74401F5E7E5F74401F547
:10018300F7900604E0B4080512080F80031207A7CE
:1001930090031A7407F0124DE0B2B6D2B9C2637479
:1001A300FFD5E0FD74FFD5E0FD74FFD5E0FD9002BF
:1001B300A17400F012C8CE12CA4EC23AB2B690036E
:1001C3001A74FFF0124DE00201CDD2BCD2AC900301
:1001D3001C7400F09003617480F0D2BCD2AC121C8A
:1001E3003A125133D279C253D247D5E0FDD5E0FD5F
:1001F300D5E0FDD5E0FDD5E0FD9002A174AAF01293
:1002030005FD903B0AE09003E5F0903B09E0900385
:10021300E6F090221F7403F09006507400F09006ED
:10022300837455F0902360E05403B403027400F028
:1002330075570090212CE0B4331DD253902378E0FE
:10024300B4550312A31812A8ECC253D24A30630761
:10025300C262C24702041C9023787400F0740090B9
:100263002148F0902149F0900645E06455700375EC
:100273007A4CC262D27712E745121B3712CC1112A5
:10028300CC4312D1FF12D24F12A2AD1245A612A730
:10029300FF121B3712A2F712D587120550129DF1D8
:1002A30012775D201A4430624190031AE0540FB470
:1002B3000F3890031C74AAF09002BCE054F8B418F1
:1002C300028006902265E0600E1224169005E5E098
:1002D300B4550280028003121FF89005E57400F004
:1002E300C26290031C7400F0808CC262902168E0AB
:1002F300B4550612E6B202027990215FE0B45518B4
:100303001230C120200990215F74AAF00202799073
:10031300215F7400F0020279902169E0B45518124C
:100323002EE120200990216974AAF002027990211C
:10033300697400F002027990216AE0B4AA689021FE
:1003430069E0B4AA2490216A74BBF090031C74AAD8
:10035300F0D252D21FC221C21EC277C220C21B904A
:10036300031AE0C2E7F00203A990215FE0B4AA03F5
:10037300020348740090216AF0757A38C220D21EB5
:10038300D277C221C278C21FC252C276C21F900363
:100393001C7400F0902375E0B45504D2228004C28B
:1003A3002280000203A9304E02801B3052028003D8
:1003B3000204769022087400F090027A7401F0A38C
:1003C3007400F012F3659021547455F09021647415
:1003D30080F0757A0090031AE0C2E7F090212C7444
:1003E30033F07A407B00C274D23B90027AE0B401CE
:1003F30009A3E0B40004D24A8004C24A8000204E1C
:100403001890027A7401F0A37400F0D24A90216D1F
:100413007400F090216E7400F012E94E127A1AC241
:100423004ED24AC26290215AE0B4AA067455F01221
:10043300A29390029CE0B4AA0790031AE0440FF041
:1004430090029C7455F0E52E5407B4060E90028B6F
:10045300E05407532EF0422E121F0A90212C7400F1
:10046300F0C21F90031AE0D2E7F090031C7400F06F
:10047300020279301F0790031AE0C2E7F030440804
:10048300121F0AD277020279305708124BABC257B8
:10049300020279305808124BB5C25802027930591A
:1004A30008124BDFC259020279305A08124C2EC28D
:1004B3005A020279305F11C25F205406129C520225
:1004C3000279129E0302027930601DC26020550C2E
:1004D300129EFD9006417455F002027912A05690C7
:1004E30006417400F00202793048061205500202F8
:1004F30079302012C21FC252C221C22090031AE0D7
:10050300D2E7F002027930613E90031AE0547FF0A3
:1005130090031C74AAF0D252D21FC277C24E12B0FB
:10052300B9C26190029CE0B4AA07D252D21F020260
:10053300ED90031C7400F0C252C21FD27790031ACD
:10054300E0448FF00202791205B202027990216A27
:10055300E0B4BB0122900643E0B45505124EC080BF
:100563000B90221DE064557003128DD02290032E50
:10057300E054FBF5F090032EE0F4540445F0F01240
:100583004FCC90032EE090032FF090032EE0540401
:10059300B4040302059C02059C22900661E0600EF0
:1005A300900318F0F5F0120DD0E4900661F022905C
:1005B300031BE0B4000C900319E054FC4403F00265
:1005C30005FCB4010C900319E054FC4402F002054D
:1005D300FCB4020C900319E054FC4401F00205FC46
:1005E300B4030A900319E054FCF00205FC900319CC
:1005F300E054FC4402F00205FC22C2B774A5D5E026
:10060300FD74A5D5E0FD902000741ED5E0FDE0F556
:100613007B7415D5E0FD74AAF0741ED5E0FD741E3D
:10062300D5E0FDE064AA7032741ED5E0FDE57BF0F1
:10063300A3E583B400D3E582B400CE741ED5E0FDF8
:10064300E0F5F07455F07405D5E0FDE06455700AEB
:10065300E5F0F090215974AAF022E0757A15902103
:100663005974AAF02275840075A33475A1EF75A29D
:10067300002275840F759720758A83E4D5E0FDD534
:10068300E0FDE58A30E6FB75890075840075B79057
:1006930075840F758901758D01758F11758E02E44F
:1006A300D5E0FD758903E58930E4FB759722227552
:1006B300840F75E10675E28075E3C475A47575A5AD
:1006C3000175A6FF75A7FF75A0C075B0C0759CC066
:1006D30074FFF5C8759DFF759FFF759EFF22C2B716
:1006E30020960C0000000000000000000080F1D202
:1006F300B70000000000000000000090CE00E0C240
:10070300B7B455DC209607000000000080F6D2B78E
:10071300000000000090CE00E0C2B7B4AAC2209649
:1007230002800FD2B7000000000090CE00E0C2B7F5
:1007330080EC209207000000000080F6D2B7000092
:10074300000000740590CC00F000C2B720960700AB
:100753000000000080F6D2B7000000000090CE0039
:10076300E0C2B7B4181D7F00DFFE20960790060491
:100773007408F022D2B7000000000090CE00E0C25F
:10078300B780E7B4191D7F00DFFE209607900604AB
:10079300740CF022D2B7000000000090CE00E0C23B
:1007A300B780E72290215D74FAF0C2ACC299782039
:1007B3007599343099FD780090215DE0604A109876
:1007C30004D8F580E5E599F5F054A064A0780070AD
:1007D300D9E5F0C454F09003CBF0C2ACC298C299EF
:1007E30078207599663099FDC299C298D8FE780031
:1007F30090215DE06012109802D8F5E59964557078
:10080300EFC299C298D8FE22757A4D2290215D7469
:10081300FAF0C2ACC29978207599343099FD78000A
:1008230090215DE0603D109804D8F580E5E599647A
:1008330011780070DDC2ACC298C2997820759966B0
:100843003099FDC299C298D8FE780090215DE0608E
:1008530012109802D8F5E599645570EFC299C298C1
:10086300D8FE22757A4D229006457400F090215DE2
:1008730074FAF0758401E598D2E3F59874AAF599B2
:1008830090215DE060758598E030E1F45398FD7840
:1008930000D8FEE598C2E3F598780090215DE0600A
:1008A3005AE59820E014D8F37599048598E030E16F
:1008B300FA5398FD7800D8FE80E15398FEE59964D9
:1008C30024780070D6782075992490215DE0602B00
:1008D300E59830E1F55398FDD8FE7800E59820E0DF
:1008E30002D8F95398FE75992490215DE0600CE5D8
:1008F3009830E1F55398FC75840022757A4C900684
:10090300457455F022900364E022900365540FE090
:1009130022E5C830E009541FF56BC26FD21E22E4F2
:10092300F56B22E5C830E109541FF56BC26FD21E87
:1009330022E4F56B22E5C830E309541FF56BC26F5F
:10094300D21E22E4F56B22E5C830E409541FF56B8F
:10095300C26FD21E22E4F56B22E5C830E209541FB0
:10096300F56BC26FD21E22E4F56B223025030254CD
:10097300C3302A030252583050030270A530650376
:10098300029111302703025F0630280302669B3071
:100993002603025A9F306403028E30302B03025623
:1009A300EA307B0302E433307C0302E97E307D03CB
:1009B30002EB6C305B0302D03532C225C22AC2502F
:1009C300C265C227C228C226C264C27BC27CC27D62
:1009D300C25BC26EC22B22C225C22AC250C265C2EA
:1009E30026C264C27BC27CC27DC25BC26EC22B22A2
:1009F300C2AFC0E0C0D0C083C082C0F0C084A2B781
:100A030092E0C0E0758400109906209808020BE676
:100A1300C218020BE6C2988599F0020B3690036266
:100A2300E0B44110E5F0B44108900373E09003642F
:100A3300F0020BDDB44210E5F0B44208900374E019
:100A4300900365F0020BDDB44319E5F0B443119054
:100A53000375E0900366F0A2E7900292E092E0F063
:100A6300020BDDB44419E5F0B44411900376E09031
:100A73000367F0A2E0900292E092E1F0020BDDB492
:100A83004510E5F0B44508900377E0900368F00261
:100A93000BDDB44610E5F0B44608900378E090030C
:100AA30069F0020BDDB44710E5F0B4470890037911
:100AB300E090036AF0020BDDB44810E5F0B4480897
:100AC30090037AE090036BF0020BDDB44910E5F07C
:100AD300B4490890037BE090036CF0020BDDB44A49
:100AE30010E5F0B44A0890037CE090036DF0020B2C
:100AF300DDB44B29E5F0B44B2190037DE090036E08
:100B0300F06017F5F054A0B4A008E5F09003D2F01C
:100B13008008E5F09003D2F0F57A020BDDB44C10B7
:100B2300E5F0B44C0890037EE090036FF0020BDD18
:100B3300020BE6309A03020A20900362E0B44109F3
:100B4300900373E5F0F0020BDDB44209900374E502
:100B5300F0F0020BDDB44309900375E5F0F0020BEE
:100B6300DDB44409900376E5F0F0020BDDB44509EA
:100B7300900377E5F0F0020BDDB44616900378E5B9
:100B8300F07445B44E06E5F0547FF5F0E5F0F0025D
:100B93000BDDB44709900379E5F0F0020BDDB448AF
:100BA3000990037AE5F0F0020BDDB4490990037B69
:100BB300E5F0F0020BDDB44A0990037CE5F0F002A6
:100BC3000BDDB44B0690037DE5F0F0B44C099003C4
:100BD3007EE5F0F0020BDD020BE69003617480F01A
:100BE3001276C6C2AFD0E0A2E092B7D084D0F0D0E4
:100BF30082D083D0D0D0E0D2AF32C2AFC0E0C0D079
:100C0300C083C082C0F0C084A2B792E0C0E0758404
:100C13000175D0108598E020E121A2E2929A85998E
:100C2300F020E01EC2AFD0E0A2E092B7D084D0F0B3
:100C3300D082D083D0D0D0E0D2AF32C2195398FD46
:100C430080E25398FE309A06C29AE5F08003020DC3
:100C5300C7900318F0120DD0B40003020C27B46F31
:100C630007900318E0020D24B449F0900318E080C4
:100C730000B4131890031AE020E204440F800444E4
:100C83000FC2E2F0E490031DF0020C27B414189095
:100C9300031AE020E004440F8004440FC2E0F0E4B0
:100CA30090031DF0020C27B4151890031AE020E3FB
:100CB30004440F8004440FC2E3F0E490031DF002E8
:100CC3000C27B41603020C27900318E054F8B41849
:100CD30019201A13201F1020520D20460A900318C2
:100CE300E09002BCF0D262020C27900318E0B440FB
:100CF30009742390031CF0020C27B4410974249057
:100D0300031CF0020C2730E515201A0F201F0C20BE
:100D13005209204606D26190031DF0020C27020DF2
:100D2300C0B48065D2359002E0E530F09002E1E591
:100D330031F09002E2E532F09002E3E533F0900205
:100D4300E4E534F09002E5E535F09002E6E536F0AF
:100D53009002E7E537F09002E8E538F09002E9E524
:100D630039F09002EAE53AF09002EBE53BF09002AD
:100D7300F2E09002ECF09002F3E09002EDF09002CA
:100D8300F4E09002EEF0020C27B48105D236020C97
:100D930027B48205D237020C27B48305D238020C5C
:100DA30027B48405D243020C27B48505D251020C23
:100DB30027B48603020C27B48703020C279002C3CF
:100DC300F0020C279002A2E5F0F0020C2790031822
:100DD300F0B40B00501F902265E0700C201A132012
:100DE3001F1020520D20460A900318E09002BCF019
:100DF300D262020EACB40F005010740FC395F09082
:100E0300C37D9390031BF0020EACB40F1890031A2A
:100E1300E020E104440F8004440FC2E1F0E49003B6
:100E23001DF0020EACB4AA1490031CE0B4550AD210
:100E33001FD25290031C74AAF0020EACB4BB05D2AD
:100E43001C020EACB4DD1AD22030530690031C747E
:100E530000F0740090212CF090215A7455F0020E8A
:100E6300ACB4551A20780C20220930760E20210BC1
:100E7300201E08D221757A22020EAC020EB220E7A0
:100E8300FAB4100B201F05205202D25F020EACB43D
:100E9300110B201F05205202D260020EACB4120CBB
:100EA300201F03205200020EAC74002274492274E6
:100EB3006F22C2AFC0E0C0D0C083C082C0F0C08484
:100EC300A2B792E0C0E075840075F97F75FA6030CF
:100ED3007607900690E0B4070A12C277900690E472
:100EE300F0800204F090038BE0B48A2F90026DE04F
:100EF300B40503020F03B4041090026CE0B4B0090C
:100F030090026E7455F0020F7D90026CE0C33401C1
:100F1300F090026DE03400F0020F7D900372E06008
:100F23000214F090215DE0600214F0302A03020FF6
:100F330037307B129002BDE0600414F08008900209
:100F4300C0E09002BDF0900271E0D5E019F5F09099
:100F530002717432F09003E7E0600214F03076031C
:100F630012D0F3020F6C020F9630290E900272E03A
:100F7300D5E004C2298003F08000C2AFC2DFD0E015
:100F8300A2E092B7D084D0F0D082D083D0D0D0E08A
:100F9300D2AF32900271F080E1C0D075D0087800F2
:100FA300E548540F600E30050BC205F812C7C61290
:100FB3001F04D8F830000302105412C7C6C3E5302B
:100FC3003401F5309020E1F0E5313400F531902023
:100FD300E2F0E5323400F5329020E3F0E53CC3342F
:100FE30001F53C9020F0F0E53D3400F53D9020F113
:100FF300F0E53E3400F53E9020F2F0902265E0B437
:10100300AA3A9003D4E0B40118C3902299E03401C2
:10101300F090229AE03400F090229BE03400F080BC
:101023001BB40218C390229FE03401F09022A0E089
:101033003400F09022A1E03400F08000902132E5EA
:101043004AF0902133E54BF0902134E550F0D0D0B5
:101053002212AF996003D0D022E54B7010E54A709D
:101063000C900000E0F54AA3E0F54B8010E54AC37D
:101073009401F54AE54B9400F54B020FBDE550B4DE
:101083000100401D9401F55075820275830085822D
:10109300F0C325F0F582E5833400F583E0600D802D
:1010A3000E758202758300E060028003020FBDB4F7
:1010B3000103020FC0B4FF0812C7C6121F0480EC5D
:1010C300B4020912C7EA121F04020FC0B4FE0C12C5
:1010D300C7C6121F0412C7C6121F040210AFC0D026
:1010E30075D0087800E548540F600E20050BD20533
:1010F300F812C7EA121F04D8F8300003021199123C
:10110300C7EAC3E5309401F5309020E1F0E531946E
:1011130000F5319020E2F0E5329400F5329020E3BF
:10112300F0E53CC39401F53C9020F0F0E53D9400DC
:10113300F53D9020F1F0E53E9400F53E9020F2F06D
:10114300902265E0B4AA3A9003D4E0B40118C390A6
:101153002299E09401F090229AE09400F090229B6F
:10116300E09400F0801BB40218C390229FE0940126
:10117300F09022A0E09400F09022A1E09400F0808F
:1011830000902132E54AF0902133E54BF090213471
:10119300E550F0D0D02212AFE16003D0D022E54B6E
:1011A300B4130DE54AB48708754A00754B008010E7
:1011B300E54AC32401F54AE54B3400F54B0211021D
:1011C300E550B4FE004002802375820275830085DA
:1011D30082F0C325F0F582E5833400F583E0F5F072
:1011E300E5502401F550E5F060028003021102B4DA
:1011F3000103021105B4FF0812C7EA121F0480ECB1
:10120300B4020912C7C6121F04021105B4FE0C1260
:10121300C7EA121F0412C7EA121F040211EFC0D05B
:1012230075D0087800E54854F003030303540F60B6
:101233000E30060BC206F812C80E121F04D8F8307F
:1012430001030212DF12C80EC3E5333401F53390F4
:1012530020E4F0E5343400F5349020E5F0E535344E
:1012630000F5359020E6F0E53FC33401F53F9020CB
:10127300F3F0E5403400F5409020F4F0E54134000C
:10128300F5419020F5F0902265E0B4AA3A9003D49A
:10129300E0B40118C390229CE03401F090229DE059
:1012A3003400F090229EE03400F0801BB40218C397
:1012B3009022A2E03401F09022A3E03400F09022C7
:1012C300A4E03400F08000902135E54CF090213605
:1012D300E54DF0902137E551F0D0D02212B02960CE
:1012E30003D0D022E54D7010E54C700C900000E067
:1012F300F54CA3E0F54D8010E54CC39401F54CE5A6
:101303004D9400F54D021248E551B401004020947C
:1013130001F5517582CA7583008582F0C325F0F506
:1013230082E5833400F583E06002800E0212487583
:1013330082CA758300E060F48000B4010302124B9B
:10134300B4FF0812C80E121F0480E1B4020912C8C8
:1013530032121F0402124BB4FE0C12C80E121F04E9
:1013630012C80E121F0402132FC0D075D0087800C4
:10137300E54854F003030303540F600E20060BD219
:1013830006F812C832121F04D8F830010302142AD7
:1013930012C832C3E5339401F5339020E4F0E53409
:1013A3009400F5349020E5F0E5359400F535902070
:1013B300E6F0E53FC39401F53F9020F3F0E5409458
:1013C30000F5409020F4F0E5419400F5419020F5BC
:1013D300F0902265E0B4AA3A9003D4E0B40118C3B4
:1013E30090229CE09401F090229DE09400F09022E2
:1013F3009EE09400F0801BB40218C39022A2E094F4
:1014030001F09022A3E09400F09022A4E09400F075
:101413008000902135E54CF0902136E54DF0902188
:1014230037E551F0D0D02212B0716003D0D022E55D
:101433004DB4130DE54CB48708754C00754D008011
:1014430010E54CC32401F54CE54D3400F54D021372
:1014530093E551B4FE00400280237582CA75830070
:101463008582F0C325F0F582E5833400F583E0F54A
:10147300F0E5512401F551E5F06002800302139376
:10148300B40103021396B4FF0812C832121F04807A
:10149300ECB4020912C80E121F04021396B4FE0C18
:1014A30012C832121F0412C832121F04021480C061
:1014B300D075D0087800E549540F600E30070BC291
:1014C30007F812C869121F04D8F83002030215295D
:1014D30012C869C3E5363401F5369020E7F0E537E5
:1014E3003400F5379020E8F0E5383400F5389020E3
:1014F300E9F0E542C33401F5429020F6F0E54334C8
:1015030000F5439020F7F0E5443400F5449020F8CB
:10151300F0902138E54EF0902139E54FF090213AD3
:10152300E552F0D0D022E54F7010E54E700C9000DC
:1015330000E0F54EA3E0F54F8010E54EC39401F5AE
:101543004EE54F9400F54F0214D3E552B401004029
:101553001D9401F5527582927583018582F0C3252E
:10156300F0F582E5833400F583E0600D800E75822B
:1015730092758301E0600280030214D3B401030275
:1015830014D6B4FF0812C869121F0480ECB4020910
:1015930012C856121F040214D6B4FE0C12C86912E4
:1015A3001F0412C869121F0402157CC0D075D0082D
:1015B3007800E549540F600E20070BD207F812C8D4
:1015C30056121F04D8F830020302162512C856C358
:1015D300E5369401F5369020E7F0E5379400F537CA
:1015E3009020E8F0E5389400F5389020E9F0E542E2
:1015F300C39401F5429020F6F0E5439400F543903F
:1016030020F7F0E5449400F5449020F8F090213859
:10161300E54EF0902139E54FF090213AE552F0D0B4
:10162300D022E54FB4130DE54EB48708754E00750F
:101633004F008010E54EC32401F54EE54F3400F50D
:101643004F0215CFE552B4FE00400280237582920B
:101653007583018582F0C325F0F582E5833400F5B7
:1016630083E0F5F0E5522401F552E5F060028003D2
:101673000215CFB401030215D2B4FF0812C85612E3
:101683001F0480ECB4020912C869121F040215D2A8
:10169300B4FE0C12C856121F0412C856121F0402BD
:1016A3001673C0D075D0087800E54954F0030303DE
:1016B30003540F600E30080BC208F812C87C121FC7
:1016C30004D8F830030302172812C87CC3E5393461
:1016D30001F5399020EAF0E53A3400F53A9020EB31
:1016E300F0E53B3400F53B9020ECF0E545C33401D5
:1016F300F5459020F9F0E5463400F5469020FAF0E0
:10170300E5473400F5479020FBF0900310E090216B
:101713003BF0900311E090213CF0900312E0902104
:101723003DF0D0D022900311E07018900310E070C8
:1017330012900000E0900310F0900001E09003117C
:10174300F08012900310E0C39401F0900311E09431
:1017530000F00216CC900312E0B40100401F940184
:10176300F07582C47583018582F0C325F0F582E5A7
:10177300833400F583E06002800E0216CC7582C4C8
:10178300758301E060F48000B401030216CFB4FF57
:101793000812C87C121F0480E1B4020912C88F1218
:1017A3001F040216CFB4FE0C12C87C121F0412C809
:1017B3007C121F0402177DC0D075D0087800E5495C
:1017C30054F003030303540F600E20080BD208F8F0
:1017D30012C88F121F04D8F830030302183D12C831
:1017E3008FC3E5399401F5399020EAF0E53A940086
:1017F300F53A9020EBF0E53B9400F53B9020ECF0BC
:10180300E545C39401F5459020F9F0E5469400F5CC
:10181300469020FAF0E5479400F5479020FBF090BE
:101823000310E090213BF0900311E090213CF090F5
:101833000312E090213DF0D0D022900311E0B413C5
:1018430013900310E0B4870C9003107400F090031E
:1018530011F08012900310E0C32401F0900311E013
:101863003400F00217E1900312E0B4FE004002805E
:10187300247582C47583018582F0C325F0F582E562
:10188300833400F583E0F5F0900312E02401F0E5E2
:10189300F0600280030217E1B401030217E4B4FF0E
:1018A3000812C88F121F0480ECB4020912C87C12FC
:1018B3001F040217E4B4FE0C12C88F121F0412C8CF
:1018C3008F121F04021898C0D075D00878009002B8
:1018D3005CE054F003030303540F600E30090BC2A2
:1018E30009F812C8B5121F04D8F8300403021955B9
:1018F30012C8B5C39002F2E02401F09020EDF090FD
:1019030002F3E03400F09020EEF09002F4E03400B3
:10191300F09020EFF0C390030AE02401F09020FC44
:10192300F090030BE03400F09020FDF090030CE006
:101933003400F09020FEF0900313E090213EF090ED
:101943000314E090213FF0900315E0902140F0D084
:10195300D022900314E07018900313E070129000EB
:1019630000E0900313F0900001E0900314F0801264
:10197300900313E0C39401F0900314E09400F00289
:1019830018F3900315E0B40100401F9401F0758231
:10199300F67583018582F0C325F0F582E583340073
:1019A300F583E06002800E0218F37582F6758301F9
:1019B300E060F48000B401030218F6B4FF0812C813
:1019C300B5121F0480E120E716900651F012C8A259
:1019D300121F04900651E014F0B401F10218F6301E
:1019E300E719900651F012C8B5121F0412C8B512B8
:1019F3001F04900651E004F0B4FFF10219AAC0D00D
:101A030075D008780090025CE054F003030303549C
:101A13000F600E20090BD209F812C8A2121F04D8B6
:101A2300F8300403021A8C12C8A2C39002F2E094A5
:101A330001F09020EDF09002F3E09400F09020EE9E
:101A4300F09002F4E09400F09020EFF0C390030ACA
:101A5300E09401F09020FCF090030BE09400F090F0
:101A630020FDF090030CE09400F09020FEF0900332
:101A730013E090213EF0900314E090213FF0900397
:101A830015E0902140F0D0D022900314E0B4131558
:101A9300900313E0B4870E9003137400F0900314C3
:101AA3007400F08012900313E0C32401F090031438
:101AB300E03400F0021A2A900315E0B4FE0040025D
:101AC30080247582F67583018582F0C325F0F58243
:101AD300E5833400F583E0F5F0900315E02401F08D
:101AE300E5F060028003021A2AB40103021A2DB43E
:101AF300FF0812C8A2121F0480EC20E716900651BB
:101B0300F012C8B5121F04900651E014F0B401F1AD
:101B1300021A2D30E719900651F012C8A2121F04C1
:101B230012C8A2121F04900651E004F0B4FFF102A0
:101B33001AE92222902257E05481B4810F90225750
:101B4300E0547EF0900263E054FEF022B4014A9028
:101B530002F2E09021F1F09002F3E09021F2F09094
:101B630002F4E09021F3F090030AE09021EEF0906C
:101B73002145F090030BE09021EFF0902146F09087
:101B8300030CE09021F0F0902147F0902257E054AD
:101B93007EF0900263E04401F022C390030CE0F571
:101BA300F0902147E0B5F0028008400374012274ED
:101BB300002290030BE0F5F0902146E0B5F002809F
:101BC3000540EC74012290030AE0F5F0902145E012
:101BD300B5F003021BDB40D7740122740022745258
:101BE300B453037400222065FA900266E0F5F09086
:101BF300030CE0B5F00C800D40087401757A2CD20B
:101C03001D22740022900265E0F5F090030BE0B50D
:101C1300F0F0800A40EC7401757A2CD21D229002F8
:101C230064E0F5F090030AE0B5F0D7800240D37486
:101C330001757A2CD21D22D2B70000007400909057
:101C430000F0C2B7000000D5E0FDD2B70000007479
:101C530000909600F0C2B7000000D5E0FDD2B700B7
:101C63000000740090A000F0C2B7000000D5E0FDB2
:101C7300D2B7000000740090A600F0C2B7000000C5
:101C8300D5E0FDD2B7000000740090C000F0C2B7E9
:101C93000000D5E0FD22C390224CE0F5F0902246EF
:101CA300E095F090224DE0F5F0902247E095F0901A
:101CB300224EE0F5F0902248E095F020E73C902298
:101CC3004EE0F5F0902248E090224EF0902248E555
:101CD300F0F090224DE0F5F0902247E090224DF095
:101CE300902247E5F0F090224CE0F5F0902246E098
:101CF30090224CF0902246E5F0F0C390224FE0F59D
:101D0300F0902249E095F0902250E0F5F090224ABD
:101D1300E095F0902251E0F5F090224BE095F02011
:101D2300E73C902251E0F5F090224BE0902251F0F5
:101D330090224BE5F0F0902250E0F5F090224AE03B
:101D4300902250F090224AE5F0F090224FE0F5F017
:101D5300902249E090224FF0902249E5F0F02220B2
:101D63006542902252E0B4553BC390224CE0F5F01B
:101D7300E53C95F090224DE0F5F0E53D95F090229D
:101D83004EE0F5F0E53E95F020E719D20ED21D2086
:101D9300760A757A47D277D21E740122D221757AD8
:101DA3000A740122740022206542902252E0B45545
:101DB3003BC390224FE0F5F0E53F95F0902250E0D1
:101DC300F5F0E54095F0902251E0F5F0E54195F00E
:101DD30020E719D20ED21D20760A757A49D277D21E
:101DE3001E740122D221757A0C7401227400222000
:101DF3006542902252E0B4553BC3902246E0F5F091
:101E0300E53C95F0902247E0F5F0E53D95F0902212
:101E130048E0F5F0E53E95F030E719D20ED21D20EB
:101E2300760A757A48D277D21E740122D221757A46
:101E33000B740122740022206542902252E0B455B3
:101E43003BC3902249E0F5F0E53F95F090224AE04C
:101E5300F5F0E54095F090224BE0F5F0E54195F083
:101E630030E719D20ED21D20760A757A4AD277D27C
:101E73001E740122D221757A0D740122740022D2BC
:101E8300B70000007400909000F0C2B7000000D5C6
:101E9300E0FD2222D2B70000007400909600F0C249
:101EA300B7000000D5E0FD2222D2B7000000740085
:101EB30090A000F0C2B7000000D5E0FD2222D2B707
:101EC300000000740090A600F0C2B7000000D5E047
:101ED300FD2222D2B7000000740090C000F0C2B708
:101EE300000000D5E0FD222290215DF01245A6906E
:101EF300215DE070F72274FFD5E0FD74FFD5E0FDAE
:101F0300227410D5E0FD2275F00FE52E54079021C1
:101F130030F0A49020002582F582E5833400F58318
:101F2300E0F5F0E53CC395F0F530A3E0F5F0E53DD1
:101F330095F0F531A3E0F5F0E53E95F0F532A3E039
:101F4300F5F0E53FC395F0F533A3E0F5F0E54095F3
:101F5300F0F534A3E0F5F0E54195F0F535A3E0F5B0
:101F6300F0E542C395F0F536A3E0F5F0E54395F0CF
:101F7300F537A3E0F5F0E54495F0F538A3E0F5F087
:101F8300E545C395F0F539A3E0F5F0E54695F0F5A1
:101F93003AA3E0F5F0E54795F0F53BE52E540775D8
:101FA300F00FA490200C2582F582E5833400F5839D
:101FB300C082C083E0F5F090030AE0C395F090027D
:101FC300F2F0D083D082A3C082C083E0F5F0900307
:101FD3000BE095F09002F3F0D083D082A3E0F5F00C
:101FE30090030CE095F09002F4F0C24412AC6D2221
:101FF300C262D0D022C0D075D0081209BDC277D238
:1020030047C276C21DC28C90032EE020E0E2900608
:1020130004E0B40C2890032EE0C2E0F0124FCC9001
:10202300032EE0C2E0F0124FCC90032EE0C2E0F0AA
:10203300124FCC90032EE0C2E0F0124FCC757A0021
:102043009003D1E4F07405121EEB9002BCE054F847
:10205300B41803D0D0227400900609F090060AF059
:1020630090060BF0902359E0B4550890060C7400C9
:10207300F0800690060C74CCF09007097400F09081
:1020830002BCE0900299F0C390031BE0940360024A
:10209300C21C1279D9C21DC21EC21CD26A900299F7
:1020A300E0F5F0B40B0040030223B990C372E5F0EE
:1020B3009360F5F577F5F0C21D12755B300E0302E0
:1020C30023B99006667400F0756B01756A0190037D
:1020D300E9E0B455179002CFE0B43700500E9006F4
:1020E3000DE0B57707D21ED21C0223B99002BCE0E3
:1020F300F5F0756B01756A0190031BE0B400028073
:10210300030221F774E8900606F07403900607F0C3
:102113007400900608F0902359E0B455030222D6C8
:1021230090060C74CCF09002BCE0F5F0E5F0B40737
:10213300030221C0B406030221C0B402030221C07A
:10214300B401030221C0B40503022186B40A0302C9
:1021530021867578007C007402900270F07E02750F
:102163006B02756A0290025FE0540F75F007A4F5E5
:10217300F074D8C395F0F58AFA74FB9400F58CFBE0
:102183000223937455900709F0122EC17578007CD1
:10219300007401900270F07E01756B04756A0490FF
:1021A300025FE0540F75F007A4F5F07490C395F047
:1021B300F58AFA74FC9400F58CFB0223937C00757A
:1021C300F0007471C395F0900270F074FE9400F502
:1021D300787E00756B01756A00740090C5B193F544
:1021E3008AFA740090C4E993F58CFB9006667455E3
:1021F300F00223937464900606F07400900607F0CF
:102203007400900608F090031BE0B4011390235967
:10221300E0B455030222D69002BCE0B40705806304
:102223000222BDB40602805BB402028056B40102EE
:102233008051B40506122EC1022247B40A06122E9B
:10224300C10222477455900709F09002B57431F02A
:102253007578FA7400900270F0756B00756A007CF3
:10226300FA7E00900260E0540F75F007A4F5F09039
:1022730002B5E0C395F0F58AFA74F99400F58CFB86
:102283000223937C0075F0007471C395F090027083
:10229300F074FE9400F5787E00756B01756A007426
:1022A3000090C5B193F58AFA740090C4E993F58C54
:1022B300FB9006667455F0022393740A900606F0A9
:1022C3007400900607F07400900608F090031BE07A
:1022D300B402599002BCE0B40506122EC10222ECEE
:1022E300B40A06122EC10222EC7455900709F07548
:1022F3006B00756A0075780A7C0A7400900270F0AE
:102303007E00900261E0540F75F014A4F5F074940C
:10231300C395F0F58AFA74B59400F58CFB902359B4
:10232300E0B4550574E2F58CFB02239302233502D6
:1023330022BDB403FA9002C07464F09002BDF0C2EF
:102343001CD22AE577127245201C6B1245A6900613
:1023530061E064BB7002D21C9002BDE070EA90029F
:10236300C07414F09002BDF0E577127245201D464B
:10237300201C43900661E064BB7002D21C1245A688
:102383009002BDE070EA9002C0E09002BDF080D8F8
:10239300D2A9D28CD22A1245A6201E1A90060CE08E
:1023A30064CC70F29002BCE0F5F0900299E065F025
:1023B30060E4D21C80E0744EB44E07900604E0B48F
:1023C3000C2A9003D1E0B4AA23124F797F6A7E01CD
:1023D3001245A6D21CD21EC28CC22AC262DEFEDF06
:1023E300ED124F79741E121EEB122405C28CC22A01
:1023F300C262C21CD0D022C28CC22AC262C21CD00A
:10240300D022900709E0B4550912508A9007097445
:1024130000F022C0D075D0081209BD9005E5740004
:10242300F090032EE020E0CFC2E0F0124FCC9003F7
:102433002EE0C2E0F0124FCC90032EE0C2E0F01287
:102443004FCC90032EE0C2E0F0124FCC9002BCE0E0
:10245300900299F0D21FD252C220C277C21EC2216B
:10246300C21CC28CD22B1279D9757701C21DC263EB
:1024730012EFBF9002BCE0F5F0E5F0B40202800376
:102483000224C974029003D4F0C3902371E0F424AE
:102493000190027CF0902372E0F4340090027DF00E
:1024A300902373E0F4340090027EF090236EE0906A
:1024B300027FF090236FE0900280F0902370E09011
:1024C3000281F002260DB40102800302250A740181
:1024D3009003D4F090236EE090027CF090236FE0A1
:1024E30090027DF0902370E090027EF0902371E0E3
:1024F30090027FF0902372E0900280F0902373E0CB
:10250300900281F002260DB40602800302255F7457
:10251300019003D4F0C390236EE0F4240190027C75
:10252300F090236FE0F4340090027DF0902370E08C
:10253300F4340090027EF0902371E0C3F424019000
:10254300027FF0902372E0F43400900280F0902335
:1025530073E0F43400900281F002260DB407028088
:10256300030225AA74029003D4F0902371E0900231
:102573007CF0902372E090027DF0902373E0900250
:102583007EF090236EE0C3F4240190027FF0902349
:102593006FE0F43400900280F0902370E0F4340094
:1025A300900281F002260DB418028018B41902803B
:1025B30013B41A02800EB41B0280099005E574550A
:1025C300F002287AC3941875F006A4F5F090C4B904
:1025D3009390027CF0E5F090C4BA9390027DF0E50D
:1025E300F090C4BB9390027EF0E5F090C4BC93904E
:1025F300027FF0E5F090C4BD93900280F0E5F09087
:10260300C4BE93900281F002260D90212F7400F036
:1026130090027CE0F558C325309020FFF090027DB6
:10262300E0F5593531902100F090027EE0F55A35FE
:1026330032902101F090027FE0C3F55B25339021B6
:1026430002F0900280E0F55C3534902103F09002B3
:1026530081E0F55D3535902104F0900282E0F55E6E
:10266300C32536902105F0900283E0F55F3537905E
:102673002106F0900284E0F5603538902107F09050
:102683000285E0F561C32539902108F0900286E0C8
:10269300F562353A902109F0900287E0F563353B06
:1026A30090210AF090212F7410F002271490027CDD
:1026B300E0C39530F55890027DE09531F5599002CD
:1026C3007EE09532F55A90027FE0C39533F55B9037
:1026D3000280E09534F55C900281E09535F55D90DC
:1026E3000282E0C39536F55E900283E09537F55F8D
:1026F300900284E09538F560900285E0C39539F542
:1027030061900286E0953AF562900287E0953BF589
:1027130063757600E55A20E70575760180197576AD
:1027230002E558C3F42401F558E559F43400F5598A
:10273300E55AF43400F55AE55D20E7054376048055
:1027430019437608C3E55BF42401F55BE55CF434D7
:1027530000F55CE55DF43400F55DE56020E70543D5
:1027630076108019437620E55EC3F42401F55EE517
:102773005FF43400F55FE560F43400F560E5632051
:10278300E7054376408019437680E561C3F424016D
:10279300F561E562F43400F562E563F43400F56352
:1027A30012717AC3E57213F566F569F56CF56FE599
:1027B3007113F565F568F56BF56EE57013F564F562
:1027C30067F56AF56DE558255BF573E559355CF5F5
:1027D30074E55A355DF575C3E55E2573F573E55FFD
:1027E3003574F574E5603575F575C3E5612573F5E5
:1027F30073E5623574F574E5633575F575127231F9
:10280300300B11C22BC26AC274C28CC22AC262C20A
:102813001CD0D0227C0075F0007471C395F0900237
:1028230070F074FE9400F5787E007D017C007400E6
:1028330090C5B193F58AFA740090C4E993F58CFBC3
:10284300022846D247D22BC21EC210C211C212C2E4
:1028530013D26AC276EAF58AEBF58CD2A9D28C122E
:1028630045A6207712201E0F90031BE0540264023A
:1028730070ED201C0280E8C262902155E4F09021A3
:1028830056F074FF902157F0902158F0C28CC22B60
:10289300C26AC274C21CC21FC252C220C21EC28CF0
:1028A300C22AC262C21CD0D02220776F301D0122FF
:1028B3009022527400F0E570B40175902291740077
:1028C300F090226BE060496455701F90226B746630
:1028D300F0902268E0C394DCF0902269E09405F064
:1028E3007400940090226AF04026902268E09002DF
:1028F3007CF0902269E090027DF0740090027EF0FB
:10290300E490027FF0900280F0900281F002298A25
:1029130090226B7400F0D21D757A20D21ED27722DA
:1029230090226C7400F0D21D757A20D21ED27722C9
:10293300E570B4045A9022927400F090226CE06027
:10294300DF6455701F90226C7466F090226DE0C3B3
:1029530094DCF090226EE09405F0740094009022D1
:102963006FF040BC90226DE090027FF090226EE009
:10297300900280F07400900281F0E490027CF09069
:10298300027DF090027EF012EFBFD2741229F4227E
:102993009020FFE090027CF0902100E090027DF017
:1029A300902101E090027EF0902102E090027FF0FE
:1029B300902103E0900280F0902104E0900281F0E6
:1029C300902105E0900282F0902106E0900283F0CE
:1029D300902107E0900284F0902108E0900285F0B6
:1029E300902109E0900286F090210AE0900287F09E
:1029F30022C0D075D0081209BDD21FD252C220D234
:102A03001EC28C12D3CCD2251279D9757701C21D7F
:102A1300207403022ACE30630FC26390212FE0B4E7
:102A23001006122993022ACE90212F7400F09002EF
:102A33007CE0F558C325309020FFF090027DE0F54F
:102A4300593531902100F090027EE0F55A353290ED
:102A53002101F090027FE0C3F55B2533902102F062
:102A6300900280E0F55C3534902103F0900281E020
:102A7300F55D3535902104F0900282E0F55EC325C3
:102A830036902105F0900283E0F55F3537902106FB
:102A9300F0900284E0F5603538902107F0900285CC
:102AA300E0F561C32539902108F0900286E0F562D4
:102AB300353A902109F0900287E0F563353B902188
:102AC3000AF090212F7410F0022B3290027CE0C3A5
:102AD3009530F55890027DE09531F55990027EE0EE
:102AE3009532F55A90027FE0C39533F55B900280EF
:102AF300E09534F55C900281E09535F55D900282B6
:102B0300E0C39536F55E900283E09537F55F90025A
:102B130084E09538F560900285E0C39539F56190BE
:102B23000286E0953AF562900287E0953BF563757E
:102B33007600E55A20E7057576018019757602E57A
:102B430058C3F42401F558E559F43400F559E55A0E
:102B5300F43400F55AE55D20E70543760480194314
:102B63007608C3E55BF42401F55BE55CF43400F51A
:102B73005CE55DF43400F55DE56020E70543761020
:102B83008019437620E55EC3F42401F55EE55FF426
:102B93003400F55FE560F43400F560E56320E70594
:102BA3004376408019437680E561C3F42401F561DF
:102BB300E562F43400F562E563F43400F563127101
:102BC3007AC3E57213F566F569F56CF56FE5711374
:102BD300F565F568F56BF56EE57013F564F567F566
:102BE3006AF56DE558255BF573E559355CF574E5D4
:102BF3005A355DF575C3E55E2573F573E55F357489
:102C0300F574E5603575F575C3E5612573F573E511
:102C1300623574F574E5633575F575127231300BF1
:102C230009C225C26AC274D0D022758CF9758A385C
:102C33007A387BF9900655E0B45534128ABD900674
:102C430056E0B4010C758CD8758A347A347BD880FD
:102C53001EB4020C758C88758A347A347B88800F95
:102C6300B4030C758C48758A347A347B488000E54C
:102C7300757027E574B408005020757800E574B4C6
:102C830001004003757880E573C313C32578F57895
:102C9300FC7400900270F0FD800D7578E874039069
:102CA3000270F07CE87D03E55E7016E55F7012E567
:102CB30060700EE561700AE5627006E5637002807C
:102CC3000A758CF9758A387A387BF9D247D225C2CE
:102CD3001EC210C211C212C213D26AC276122D4C86
:102CE300D2A9D28C1245A6207705201E0280F5C2F8
:102CF30062902155E4F0902156F074FF902157F033
:102D0300902158F01279D9127776900655E06455E0
:102D1300702C124EAD740A121EEB9003827400F0F5
:102D23009006557400F0306115C26190031C740065
:102D3300F0C252C21FD27790031AE0448FF0C28CC4
:102D4300C225C26AC274D0D02290025FE0540F75CC
:102D5300F007A4F5F0EAC395F0F58AFAEB9400F5D1
:102D63008CFB22902350E06455703790030AE0F502
:102D7300F074E8C395F0900288F090030BE0F5F04F
:102D830074FD95F0900289F090030CE0F5F0740067
:102D930095F090028AF0D274C277D26A122DAB7486
:102DA3000022757A54740122C0D075D0081209BD6F
:102DB300C28CD21FD252C220D21ED26EC21D122E7C
:102DC300C1207403022DDF900288E0F5739002891D
:102DD300E0F57490028AE0F575022DF8900288E020
:102DE300C39530F573900289E09531F57490028AAA
:102DF300E09532F575757700E57520E7057577A1E0
:102E030080197577A2E573C3F42401F573E574F4AF
:102E13003400F574E575F43400F575758CF9758A2D
:102E2300007A007BF9127231300B0A12A056C26E7F
:102E3300C250D0D022E5757028E574B40800502143
:102E4300757800E574B401004003757880E573C3B9
:102E530013C32578F578FC7D007400900270F08030
:102E63000D7578E87403900270F07CE87D03D2500E
:102E7300C21EC276D247D26AEAF58AEBF58CD2A992
:102E8300D28C1245A6201E0520770280F5741E12EF
:102E93001EEB124F79C26EC25074C8121EEB12D3CE
:102EA300CC124F597464121EEB12A056129D9390CC
:102EB30022C17455F0C28CC26AC274D0D02290066B
:102EC30004E0B40806744EB44E01229003D174AAF0
:102ED300F0124F737405121EEBD255222222C0D07A
:102EE30075D0081209BDD21FD252C220D21ED225DC
:102EF300C28C740A121EEB1279D9757701C21D9028
:102F0300211DE0C3953CF558A3E0953DF559A3E099
:102F1300953EF55AA3E0C3953FF55BA3E09540F5D5
:102F23005CA3E09541F55DA3E0C39542F55EA3E0A4
:102F33009543F55FA3E09544F560A3E0C39545F59C
:102F430061A3E09546F562A3E09547F563757600C6
:102F5300E55A20E7057576018019757602E558C3B1
:102F6300F42401F558E559F43400F559E55AF434DD
:102F730000F55AE55D20E70543760480194376089A
:102F8300C3E55BF42401F55BE55CF43400F55CE533
:102F93005DF43400F55DE56020E7054376108019A4
:102FA300437620E55EC3F42401F55EE55FF4340067
:102FB300F55FE560F43400F560E56320E7054376EB
:102FC300408019437680E561C3F42401F561E5622D
:102FD300F43400F562E563F43400F56312717AC3E7
:102FE300E57213F566F569F56CF56FE57113F56533
:102FF300F568F56BF56EE57013F564F567F56AF53D
:103003006DE558255BF573E559355CF574E55A357F
:103013005DF575C3E55E2573F573E55F3574F5748A
:10302300E5603575F575C3E5612573F573E56235BF
:1030330074F574E5633575F575127231300B11C291
:103043001FC252C21EC220C225C26AC274D0D0227D
:10305300758CF9758A387A387BF9E575701EE574D5
:10306300B4080050175401757800B40103757880D3
:10307300E573C313C32578F578FC800D7578E87480
:1030830003900270F07CE87D03D225C21EC210C2F9
:1030930011C212C213D26AC276EAF58AEBF58CD258
:1030A300A9D28C1245A6201E0280F8C21FC252C2AA
:1030B3001EC220C28CC225C26AC274D0D02212980A
:1030C3001620201212987F20200C1298E820200648
:1030D30012996620200090032EE054DFF0124FCCAB
:1030E30090032EE090032FF07455D5E0FD90032E4E
:1030F300E054DFF0124FCC90032EE090032FF0C288
:103103001FC252C220C21E22903B0CE0B401030234
:1031130031606048B4120040027412149002AFF0A0
:10312300F5F09002AEE06034B40E004002740E7508
:10313300F006A49002AFF0903B0CE0601FB41200C5
:103143004002741214F5F09002AFE0849002AFF0E5
:10315300B43C0040079002AFE0743CF0229002AE12
:10316300E0601BB40E004002740E75F018A49002C8
:10317300AFF0B4FA0040079002AFE074FAF02222F5
:103183009005E4E0B455F874009005E4F0903B0A30
:10319300E09003E5F0903B09E09003E6F0903B00FC
:1031A300E0B4E6DB903B01E0B403D47582007583A1
:1031B3003BE0758220758322F075820075833BA303
:1031C300E0758220758322A3F0903B02E0902222D7
:1031D300F0903B03E0902223F0903B04E090222404
:1031E300F0903B05E0902225F0903B06E0902226EC
:1031F300F0903B07E0902227F0903B08E0902228D4
:10320300F0903B0CE090222CF0903B0DE090222DAF
:10321300F0903B0EE090222EF0903B09E0902229A3
:10322300F0903B0AE090222AF0903B0BE090222B97
:10323300F022758220758322E075820075833BF04E
:10324300758220758322A3E075820075833BA3F00A
:10325300902222E0903B02F0902223E0903B03F087
:10326300902224E0903B04F0902225E0903B05F06F
:10327300902226E0903B06F0902227E0903B07F057
:10328300902228E0903B08F090222CE0903B0CF039
:1032930090222DE0903B0DF090222EE0903B0EF01B
:1032A300902229E0903B09F090222AE0903B0AF01B
:1032B30090222BE0903B0BF022123235903B0BE037
:1032C300B4020040027402903B0BF0D24B12513314
:1032D300D2797464121EEB124F3F7464121EEB908A
:1032E3002148E0D2E2F0124ED274C8121EEBD24B48
:1032F300125133D2799003947455F0E4900371F032
:1033030012D2D52275820075833BE075820A7583DC
:1033130022F075820075833BA3E075820A758322D0
:10332300A3F0903B02E090220CF0903B03E090224C
:103333000DF0903B04E090220EF0903B05E09022CC
:103343000FF0903B06E0902210F0903B07E09022B4
:1033530011F0903B08E0902212F0903B0CE0902299
:1033630016F0903B0DE0902217F0903B0EE0902278
:1033730018F0903B09E0902213F0903B0AE0902272
:1033830014F0903B0BE0902215F090216DE0902219
:103393001AF090216EE090221BF0902149E09022D8
:1033A30019F022902219E04405902149F090214818
:1033B300F090221AE090216DF090221BE090216E94
:1033C300F0902213E0903B09F0902214E0903B0A26
:1033D300F0902215E0903B0BF0D24B125133D2798F
:1033E30074C8121EEB74C8121EEB75820A75832211
:1033F300E075820075833BF075820A758322A3E032
:1034030075820075833BA3F090220CE0903B02F0A1
:1034130090220DE0903B03F090220EE0903B04F0ED
:1034230090220FE0903B05F0902210E0903B06F0D5
:10343300902211E0903B07F0902212E0903B08F0BD
:10344300902216E0903B0CF0902217E0903B0DF099
:10345300902218E0903B0EF0D24B125133D2799068
:1034630003947455F0E4900371F07400902208F013
:1034730022902180783CE6F0A308B848F990030A2B
:10348300E090218CF090030BE090218DF090030CE1
:10349300E090218EF075820075833BE0902190F0DF
:1034A30075820075833BA3E0902191F022D2749042
:1034B3000294E0740A90027CF0E490027DF09002A2
:1034C3007EF0E490027FF0900280F0900281F0128F
:1034D300EFBF902180E0C3953C90027CF090218166
:1034E300E0953D90027DF0902182E0953E90027E32
:1034F300F0902183E0C3953F90027FF0902184E018
:103503009540900280F0902185E09541900281F0F2
:10351300902186E0C39542900282F0902187E09546
:1035230043900283F0902188E09544900284F090C8
:103533002189E0C39545900285F090218AE0954664
:10354300900286F090218BE09547900287F0122934
:10355300F43077030235931209BDD27490030AE065
:10356300F5F090218CE0C395F0900288F090030B66
:10357300E0F5F090218DE095F0900289F090030C36
:10358300E0F5F090218EE095F090028AF0122DABD9
:103593002274A0900288F0740F900289F074009056
:1035A300028AF0D274122DAB222212330790220822
:1035B300E0902209F0C3940540067400902209F0BC
:1035C30090221CE0B45502800A9006007400F02299
:1035D30002365E902209E0C39402501190220874CF
:1035E30001F0C2211209BD1235942020E390220973
:1035F300E0C3940350099022087402F02020D19074
:103603002209E0C39404500F1209BD9022087403E9
:10361300F01234B02020B990216A74AAF0C276C2A5
:103623001FC252C26690237E7400F090216A74BB5D
:10363300F09023747455F0757A4412F8E320771BE5
:103643009023747400F02077127400900371F0904B
:1036530023747400F0C254C25580030236F59023DC
:103663007E7400F0C24EC22290216A74BBF09003B4
:103673001C74AAF0D252D21FC221C21EC277C2202A
:10368300C21B90031AE0C2E7F09021547455F090E6
:1036930021647480F0757A0090031AE0C2E7F09019
:1036A300212C7433F07A407B0090237BE0FB902342
:1036B3007CE0FAC274D23B90027A7401F0A37400E6
:1036C300F0D24A9022087400F09022097400F0129C
:1036D30009BD1232BC1209BD7A407B0090237BE006
:1036E300FB90237CE0FA9006007455F090038CE481
:1036F300F022C22290216A7400F0D27790220874DB
:1037030000F09022097400F09006007400F022C0CB
:10371300D075D008757701C21D1209BDC226C28CAF
:1037230012F38FD27474009002AFF09003ED740023
:10373300F090219DE0701790216DE0B4550890033F
:10374300837402F080089003837400F08000902358
:103753005EE0B45502C2742074060238C9023826EA
:103763003063FAC26390212FE0B410F19020FF126E
:103773002993C263902340E0F5F090027CE0C39567
:10378300F0F558902341E0F5F090027DE095F0F5D7
:1037930059902342E0F5F090027EE09532F55A907D
:1037A3002343E0F5F090027FE0C395F0F55B9023AF
:1037B30044E0F5F0900280E095F0F55C902345E05D
:1037C300F5F0900281E095F0F55D902346E0F5F089
:1037D300900282E0C395F0F55E902347E0F5F09008
:1037E3000283E095F0F55F902348E0F5F0900284C2
:1037F300E095F0F560902349E0F5F0900285E0C391
:1038030095F0F56190234AE0F5F0900286E095F09B
:10381300F56290234BE0F5F0900287E095F0F563B5
:1038230002392F90212F7400F090027CE0F558C3E9
:1038330025309020FFF090027DE0F559353190213D
:1038430000F090027EE0F55A3532902101F09002AB
:103853007FE0C3F55B2533902102F0900280E0F511
:103863005C3534902103F0900281E0F55D353590AD
:103873002104F0900282E0F55EC32536902105F025
:10388300900283E0F55F3537902106F0900284E0E3
:10389300F5603538902107F0900285E0F561C32586
:1038A30039902108F0900286E0F562353A902109BB
:1038B300F0900287E0F563353B90210AF090212FC9
:1038C3007410F002392FC26390027CE0C39530F587
:1038D3005890027DE09531F55990027EE09532F5DE
:1038E3005A90027FE0C39533F55B900280E09534F4
:1038F300F55C900281E09535F55D900282E0C39519
:1039030036F55E900283E09537F55F900284E0958B
:1039130038F560900285E0C39539F561900286E041
:10392300953AF562900287E0953BF563757600E57D
:103933005A20E7057576018019757602E558C3F4B8
:103943002401F558E559F43400F559E55AF43400E7
:10395300F55AE55D20E7054376048019437608C3ED
:10396300E55BF42401F55BE55CF43400F55CE55DAF
:10397300F43400F55DE56020E705437610801943D4
:103983007620E55EC3F42401F55EE55FF43400F5CB
:103993005FE560F43400F560E56320E705437640B6
:1039A3008019437680E561C3F42401F561E562F48F
:1039B3003400F562E563F43400F56312717AC3E50C
:1039C3007213F566F569F56CF56FE57113F565F539
:1039D30068F56BF56EE57013F564F567F56AF56DDB
:1039E300E558255BF573E559355CF574E55A355DA6
:1039F300F575C3E55E2573F573E55F3574F574E519
:103A0300603575F575C3E5612573F573E562357446
:103A1300F574E5633575F575127231300B0BC226FB
:103A2300D0D022023B06023B03302203023A351276
:103A3300310BD21ED2799003937464F02022099043
:103A43002148E0D2E0F08003023AF2129E97C221AD
:103A530012A294306603023B06124F3390032EE00A
:103A630020E669124F3390215D7432F01245A6129D
:103A7300A7FF2020B112A2942066A890215DE070D8
:103A8300EB90032EE05448F0124FCC90032EE090BD
:103A9300032FF090215D745AF01245A612A7FF2060
:103AA300205E12A29420665B90215DE070EB2045BE
:103AB3001B90215D74C8F01245A612A7FF20204079
:103AC30012A29420663D90215DE070EB12A2942037
:103AD3006631205503129F5B12C16812D2B412C122
:103AE3009A20661F207719202016C247023AF290C7
:103AF3003B02E0900371F07400900394F0023B09E1
:103B0300023C9212D3CC202207902148E0D2E0F06D
:103B1300902375E0B45503128DD0C24CC24D757B12
:103B230000C21EC210C211C212C213757C00757D81
:103B330000757A009003D37455F074009003F0F08D
:103B43009003F1F09003F2F09003817425F0902339
:103B53004FE0540790C36993900380F01209BDD2DC
:103B630026C22120222B758CD0758A257A257BD0FD
:103B730090219DE0701590216EE0B4550E90038165
:103B8300E0F58AFA900380E0FBF58CD26AD2768066
:103B93000E758CF4758A0A7A0A7BF4C276D26AD2DD
:103BA300A9D28C90064B7402F0D27912E10A9021CB
:103BB3006AE0B4DD099003707403F012FA7D902279
:103BC30008E0B40400500612A2AD30662290221C15
:103BD300E0B45515902207E0B45508740090237E95
:103BE300F08006745590237EF0D221C21FC2521278
:103BF300A2F79003E4E0B4AA06D221C21FC2521274
:103C030045A6121B3712A7FF20220D90216AE0B4AC
:103C1300DD03023C1B12D2B4201E7430218DC27608
:103C2300C21FC252C266902148E04401F09021496C
:103C3300F090038CE4F012DBF620777090216AE0B9
:103C4300B4330A90221CE0B45503023CC690235FB0
:103C5300E0B45503023CC61209BDD22620220C75DE
:103C63008CD0758A257BD07A25800C758CF4758A67
:103C73000A7BF47A0A8000D2A9D28C202208D27659
:103C830090064B7402F0207703023BAE023BF23006
:103C93007724C28CC2262022137466900389F09085
:103CA3000388F012D1FF12D3CC124F59C2229021B4
:103CB3006A7400F0800D90219DE0700790216DE003
:103CC300B45500740090219DF074009002AEF0C2D0
:103CD3008CC226C274C276D0D022E5309003F8F0AD
:103CE300E5319003F9F0E5329003FAF0E533900300
:103CF300FBF0E5349003FCF0E5359003FDF02290F2
:103D030003F8E0F5309003F9E0F5319003FAE0F5BC
:103D1300329003FBE0F5339003FCE0F5349003FDB0
:103D2300E0F53522E490235FF0745590235EF07440
:103D33000090235DF0745590235CF012F0917400B1
:103D430090235CF020772390219CE0B4010A12F1C8
:103D5300FB740090235EF02212DBF620770C902395
:103D63005FE0B4550280BD12F1FB740090235EF056
:103D730022E490235FF0745590235EF07400902347
:103D83005DF0745590235CF012F091740090235C05
:103D9300F020772390219CE0B4010A12F2A1740071
:103DA30090235EF02212DBF620770C90235FE0B4C1
:103DB300550280BD12F2A1740090235EF022E490BC
:103DC300235FF0745590235EF0740090235DF074CC
:103DD3005590235CF012F091740090235CF02077EF
:103DE3001E90219CE0B40108740090235EF0800FC4
:103DF30012DBF620770990235FE0B4550280BFE41D
:103E030090235FF0740090235EF0740090235DF0C4
:103E1300740090235CF02290068CE0B401047401DA
:103E23008004903B0CE0B41100400274119002AF87
:103E3300F022C0D075D008C28C1209DA9003C5E015
:103E4300A2E09227A2E19228F012F38FC2749003AA
:103E5300ED7400F074009002AFF090068CE0B401B2
:103E63000474018004903B0CE0B41100400274110F
:103E73009002AFF090216DE0B45508900383740273
:103E8300F080089003837400F08000123CDD9023DF
:103E93005EE0B45505C274023F7A20742A3063246D
:103EA300902340E0F530902341E0F531902342E048
:103EB300F532902343E0F533902344E0F534902327
:103EC30045E0F535023F80306317C26390212FE050
:103ED300B4100E122993902270E0900288F0023FF2
:103EE3008090212F7400F090027CE0C32530F09085
:103EF30020FFF090027DE03531F0902100F0900238
:103F03007EE03532F0902101F090027FE0C325334B
:103F1300F0902102F0900280E03534F0902103F01C
:103F2300900281E03535F0902104F0900282E0C3E5
:103F33002530F0902105F0900283E03531F0902197
:103F430006F0900284E03532F0902107F09002856C
:103F5300E0C32533F0902108F0900286E03534F079
:103F6300902109F0900287E03535F090210AF09016
:103F73000288E0902270F090212F7410F0C2631237
:103F8300F3B7307710123D02D21DD21EC227C228CA
:103F9300D277D0D02290027CE0F55890027DE0F5F4
:103FA3005990027EE0F55A90027FE0F55B90028023
:103FB300E0F55C900281E0F55D900282E0F55E90B1
:103FC3000283E0F55F900284E0F560900285E0F5FE
:103FD30061900286E0F562900287E0F563900288C3
:103FE300E0F56B75640075650075660085306C855A
:103FF300316D85326E85336F8534708535717567A4
:1040030001756802756904756A08123D02C223C20C
:1040130024C21D1242D6D2793022002022099021D7
:1040230048E0D2E0F080090240D50240F10240E6C8
:10403300C221129E9712A2943066030240F19003AC
:104043002EE020E673124F3390032EE020E6691230
:104053004F3390215D74C8F01245A612A7FF2020AC
:10406300CC12A2942066C390215DE070EB90032EE6
:10407300E05448F0124FCC90032EE090032FF090C1
:10408300215D745AF01245A612A7FF20205512A2F3
:104093009420665A90215DE070EB20451B90215DD2
:1040A30074C8F01245A612A7FF20203712A294204D
:1040B300663C90215DE070EB12A29420663020559F
:1040C30003129F5B12D2B4206624207716C24702E4
:1040D30040D5903B02E0900371F07400900394F09C
:1040E3000240F4C22290216A7400F002426512D3A6
:1040F300CC202207902148E0D2E0F0902375E0B471
:104103005503128DD0C24CC24D757B00C21E2022B6
:104113002B758CD0758A257A257BD090219DE070F4
:104123001590216EE0B4550E900381E0F58AFA9064
:104133000380E0FBF58CD276D26A800E758CF47521
:104143008A0A7A0A7BF4C276D26A9003D37455F052
:104153001209BD9003C5E0A2E09227A2E19228F0E4
:10416300C221D2A9D28C90064B7402F012E10A90BC
:10417300216AE0B4DD099003707403F012FA7D90B4
:104183002208E0B40400500612A2AD30662F90223C
:104193001CE0B45515902207E0B455087400902331
:1041A3007EF08006745590237EF0D221C21FC25246
:1041B30090215AE0B4AA067455F012A29312A2F702
:1041C3009003E4E0B4AA06D221C21FC2521245A64C
:1041D30012A7FF90216AE0B4DD030241E312D2B4D7
:1041E300201E7F302186C276C21FC252C266902132
:1041F30048E04401F0902149F090038CE4F012DB95
:10420300F620770E90216AE0B4330A90221CE0B4C2
:10421300550302429790235FE0B45503024297127D
:1042230009BD9003C5E0A2E09227A2E19228F02005
:10423300220C758CD0758A257BD07A25800C758CE1
:10424300F4758A0A7BF47A0A8000D2A9D28C2022E0
:1042530008D27690064B7402F020770302416F0276
:1042630041C0307726C227C228C28C90216A7400CD
:10427300F0C22220221E7466900389F0900388F016
:1042830012D1FF12D3CC124F59800990216EE0B4A2
:1042930055028000E490068CF0C227C228C276C281
:1042A30074C28CD0D02290068CE0B40104740180D7
:1042B30004903B0CE075F006849003EFF0C3E5F047
:1042C300940340069003EFE004F09003EFE07002E4
:1042D30004F0221242A990039A7400F090039BF019
:1042E30090039CF090039D7400F090039EF0900364
:1042F3009FF0C3E558856CF095F090039AF0E5596B
:10430300856DF095F090039BF0E55A856EF095F07E
:1043130090039CF030E719C390039AE0F42401F072
:1043230090039BE0F43400F090039CE0F43400F03D
:10433300C3E55B856FF095F09003D5F0E55C857080
:10434300F095F09003D6F0E55D8571F095F090035C
:10435300D7F030E719C39003D5E0F42401F09003BC
:10436300D6E0F43400F09003D7E0F43400F0C390C7
:1043730003D5E0F5F090039AE035F0F09003D5F023
:104383009003D6E0F5F090039BE035F0F09003D670
:10439300F09003D7E0F5F090039CE035F0F0900344
:1043A300D7F09003D7E054FF601274FF9003D5F069
:1043B300747F9003D6F074009003D7F09003D6E097
:1043C300547FF0C39003D5E0F5F0742595F0900386
:1043D30081F09003D6E0F5F074D095F0900380F06F
:1043E300C375F0D0900381E095F0F075F00790036A
:1043F30080E095F0F09003EE740AF0C39003D7E0E9
:1044030013F09003D6E013F09003D5E013F02212DB
:1044130042A9124446C390039DE03401F090039EE9
:10442300E03400F090039FE03400F0C390039AE07F
:104433009401F090039BE09400F090039CE09400BF
:10444300F0222290216EE0B455F8C39003D5E0F535
:10445300F090039AE095F09003D6E0F5F090039B7B
:10446300E095F09003D7E0F5F090039CE095F050D1
:1044730014C3900381E09402F0FA900380E0940067
:10448300F0FB0244C3C39003D5E0F5F090039DE035
:1044930095F09003D6E0F5F090039EE095F090033D
:1044A300D7E0F5F090039FE095F05011C39003819E
:1044B300E03402F0FA900380E03400F0FB0244C3DE
:1044C3000244EB2290039FE0701E90039EE0B4042D
:1044D300005015C3900381E03402F0FA900380E0AA
:1044E3003400F0FB8000800090216DE0B455028021
:1044F3000302457C90039CE0704F90039BE070495E
:1045030090039AE0601AB464005008900383740225
:10451300F08014B4C80050319003837401F0800715
:10452300900383E4F08000902273E0902275F09072
:104533002273E0608EC3900381E0940AF0FA900343
:1045430080E09400F0FB0245A590039FE0702A9061
:10455300039EE07024902274E0601E90039DE0B4FB
:10456300640050089003837402F08017B4C80050AD
:10457300089003837401F0800A900383E4F080229F
:104583000244C6902274E0902275F0902274E06099
:10459300EFC3900381E0340AF0FA900380E0340023
:1045A300F0FB22202C57202D57202E57202F572049
:1045B3003057206C57206D57203157203257203306
:1045C3005720345720355720365720375720385730
:1045D300205157203C5D203D5D203E5D203F5D2006
:1045E300405D20395D20415D20425D20435D2058C0
:1045F3005D20595D205A5D20445D02465D0248D42A
:104603000248EC02490402491C02493402494C02A3
:10461300497D024ADC0249F7024A71024A90024C80
:1046230061024CB4024D07024D5A024DF4024E583A
:10463300024E6802497E0249960249AE0249C60209
:1046430049DE0249F6024A39024A5F024DAD024B86
:10465300B5024BDF024C2E021F0A9002B8E0B4AA47
:1046630016E5E754FEF5E71207359002B87455F0E6
:10467300E5E74401F5E72290029BE0B4A203024B75
:1046830011B4A303024B29B4A403024B41B4A50301
:10469300024B59B4A603024B7190028CE0B4A803F9
:1046A300024B729002B9E0B4A10A1247B29002B968
:1046B3007400F0229002BAE0B4A70A1247C990022C
:1046C300BA7400F0229003B2E0B4AC0A124813901B
:1046D30003B27400F022900681E0B4AE0A12C1B9AD
:1046E3009006817400F02290066DE0B4AF0A12C206
:1046F3006990066D7400F022900359E0B4880A12A1
:1047030048A97400900359F0229003B4E0B4550A09
:1047130012486E74009003B4F022902264E0B45502
:104723000A1248297400902264F022900320E0C307
:1047330094804013900320E0C39486500A12484AA1
:104743009003207400F02202475D302A01223025B5
:10475300012230650122305001229003B7E0B455A5
:104763000D9002D1E0600712500012503E229002D9
:104773006EE06455701A20210C90236DE0B4AA02F8
:10478300800312A318124EE4124EE4124EE480F595
:1047930012D7B012059D107A0712C741D27A80034F
:1047A30012515612B2FD740FD5E0FD205F00229026
:1047B300214BE012C12DA3E012C12DA3E012C12DA4
:1047C300A3E012C12D22902162E012C12D9021633A
:1047D300E012C12D740090216BE0B45504440480B1
:1047E3000254FB204B0454FE80024401C24B207947
:1047F3000454FD80024402C279F5F090215CE0B4D8
:10480300AA06E5F044088004E5F054F712C12D220E
:10481300902130E012C12D900645E012C12D900386
:104823001BE012C12D22902258780CE012C12DA357
:10483300D8F9900296E0547FF022900670780FE04A
:1048430012C12DA3D8F922900320E0C3948054070A
:1048530075F00FA49020002582F582E5833400F5DE
:1048630083780FE012C12DA3D8F9229003B5E0128B
:10487300C12D902240E012C12D902241E012C12DA2
:10488300902242E012C12D902243E012C12D9022CA
:1048930044E012C12D902245E012C12D9003B5E0F2
:1048A300B45502E4F0229021B2E012C12D9021B35D
:1048B300E012C12D9021B4E012C12D9021B5E01278
:1048C300C12D9021B6E012C12D9021B7E012C12D68
:1048D300229002E0E012C12D9002E1E012C12D907E
:1048E30002E2E012C12DC22C229002E3E012C12D9C
:1048F3009002E4E012C12D9002E5E012C12DC22D19
:10490300229002E6E012C12D9002E7E012C12D9041
:1049130002E8E012C12DC22E229002E9E012C12D5D
:104923009002EAE012C12D9002EBE012C12DC22FDA
:10493300229002ECE012C12D9002EDE012C12D9005
:1049430002EEE012C12DC23022900263E030E01883
:10495300900304E012C12D900305E012C12D9003D2
:1049630006E012C12DC26C22740012C12D74001214
:10497300C12D740012C12DC26C22229002F5E012E7
:10498300C12D9002F6E012C12D9002F7E012C12D65
:10499300C23C229002F8E012C12D9002F9E012C14C
:1049A3002D9002FAE012C12DC23D229002FBE012CB
:1049B300C12D9002FCE012C12D9002FDE012C12D29
:1049C300C23E229002FEE012C12D9002FFE012C10E
:1049D3002D900300E012C12DC23F22900301E0128B
:1049E300C12D900302E012C12D900303E012C12DEB
:1049F300C24022229002CFE0C3B4960040027496D4
:104A03009002CFE012C12D900296E020E7089006B5
:104A130057E0900296F012C12DE4900657F09021D2
:104A230054E012C12D900296E054F0F0902266E01B
:104A330012C12DC232229002A0E012C12D9002D1E8
:104A4300E012C12D90036BE012C12D9002A2E0127F
:104A5300C12D9003CBE012C12DC24122780F758284
:104A63000075833BE012C12DA3D8F9C24222900204
:104A7300CEE012C12D90036AE012C12D90036CE0C9
:104A830012C12D90036DE012C12DC2332290216D0E
:104A9300E0B45508900384E044018006900384E069
:104AA30054FEF090216EE0B45508900384E0440274
:104AB3008006900384E054FDF012C12D9002CDE0F6
:104AC30012C12DE49002C1F090031CE012C12D909D
:104AD30022BAE012C12DC23422E57A60049002BBEF
:104AE300F012C12D757A00E52E12C12D80119003AD
:104AF300CCE030E10A748A90038BF0745580027421
:104B03000012C12D90065FE012C12DC23122902107
:104B13000EE012C12DA3E012C12DA3E012C12D900E
:104B2300029B7400F022902111E012C12DA3E01228
:104B3300C12DA3E012C12D90029B7400F02290219D
:104B430014E012C12DA3E012C12DA3E012C12D90D8
:104B5300029B7400F022902117E012C12DA3E012F2
:104B6300C12DA3E012C12D90029B7400F02222906C
:104B73000263E030E01C900304E012C12D900305B2
:104B8300E012C12D900306E012C12D90028C740037
:104B9300F022740012C12D740012C12D740012C1D1
:104BA3002D90028C7400F0229002C3E012C12DC23A
:104BB30057229002CDE0F5F020F704C2E08002D244
:104BC300E012C12D9002CEE012C12D900297E012A7
:104BD300C12D900297E012C12DC25822900364E0C8
:104BE30012C12D900365E0A2E0926BA2E192E0A2D4
:104BF3006B92E112C12D900694E0A2E0900366E06F
:104C030092E612C12D900367E012C12D900368E074
:104C130012C12D900369E012C12D9002D2E012C19E
:104C23002D9002D3E012C12DC259229020D2E0125E
:104C3300C12DA3E012C12D9020D5E012C12DA3E018
:104C430012C12D9020D8E012C12DA3E012C12D90E6
:104C530020DBE012C12DA3E012C12DC25A227584BC
:104C630001E598D2E3F5987480307502D2E6D21943
:104C7300F5992019FDE598C2E3F5987420D5E0FD78
:104C83009002E0E0D219F5992019FD7408D5E0FDF2
:104C93009002E1E0D219F5992019FD7408D5E0FDE1
:104CA3009002E2E0D219F5992019FDC2357584000E
:104CB30022758401E598D2E3F5987481307502D2A8
:104CC300E6D219F5992019FDE598C2E3F598742009
:104CD300D5E0FD9002E3E0D219F5992019FD74089F
:104CE300D5E0FD9002E4E0D219F5992019FD74088E
:104CF300D5E0FD9002E5E0D219F5992019FDC23601
:104D030075840022758401E598D2E3F598748230A6
:104D13007502D2E6D219F5992019FDE598C2E3F59B
:104D2300987420D5E0FD9002E6E0D219F599201998
:104D3300FD7408D5E0FD9002E7E0D219F59920193A
:104D4300FD7408D5E0FD9002E8E0D219F599201929
:104D5300FDC23775840022758401E598D2E3F59886
:104D63007483307502D2E6D219F5992019FDE598BE
:104D7300C2E3F5987420D5E0FD9002E9E0D219F57D
:104D8300992019FD7408D5E0FD9002EAE0D219F5E7
:104D9300992019FD7408D5E0FD9002EBE0D219F5D6
:104DA300992019FDC23875840022758401E598D2D3
:104DB300E3F5987484307502D2E6D219F599201977
:104DC300FDE598C2E3F5987420D5E0FD90031AE061
:104DD300D219F5992019FDC243758400227452B487
:104DE300520E900645E0645560063043FD124DAD0A
:104DF30022758401E598D2E3F5987485307502D263
:104E0300E6D219F5992019FDE598C2E3F5987420C7
:104E1300D5E0FD9002C2E06009900319E0448002EE
:104E23004E2B900319E0547FD219F5992019FDE513
:104E330098C2E3F5987420D5E0FD9002BBE030E71B
:104E4300027400D219F5992019FDE49002BBF0C257
:104E53005175840022758401E52FD219F599201923
:104E6300FD75840022758401E52ED219F599201968
:104E7300FD75840022D29BD218F5992018FD744049
:104E8300D5E0FD22C29BD218F5992018FD7440D5B8
:104E9300E0FD227405124E78227406124E782274B5
:104EA30007124E78741E121EEB227408124E787489
:104EB300C8121EEB2290221DE0645560057408128F
:104EC3004E78227409124E7822740A124E78227494
:104ED3000B124E7822740C124E7822740D124E78F7
:104EE3002274AB124E782290032EE0547FF0124FBF
:104EF300CC90032EE090032FF0900654E0B45506B7
:104F03007417124E78227411124E78227412124EB4
:104F1300782290032EE0547FF0124FCC90032EE0C2
:104F230090032FF07417124E78227418124E7822C1
:104F33003022012290216AE0B4BB0122740A121EBE
:104F4300EB90032EE054BF4440F0124FCC90032E5D
:104F5300E090032FF022740A121EEB90032EE0540C
:104F6300BF4400F0124FCC90032EE090032FF022A9
:104F73007415124E7822744EB44E07900604E0B4B2
:104F83000C0E9003D1E0B4AA0C7416124E78C255DD
:104F9300E49003D1F0227416124E78C25522742A7B
:104FA300124E789002D4E054C0F5F0900694E05489
:104FB3003F45F0124E879006957400F0900694E0FA
:104FC30030E0037401227402227421124E7890039C
:104FD3002EE0124E87227422124E78903B0AE01282
:104FE3004E87227423124E78903B0BE0124E872299
:104FF3007424124E78903B09E0124E87229003B638
:10500300E0B455367428124E789023617400F09002
:10501300230075F000902300C3E58235F0F582E5A7
:10502300833400F583E0124E87902361E004F0F5AA
:10503300F0B41EE19003B67400F0229003B7E0B41D
:1050430055367429124E789023617400F090232012
:1050530075F000902320C3E58235F0F582E58334B3
:1050630000F583E0124E87902361E004F0F5F0B47D
:105073001EE19003B77400F022900604E0B40C51D3
:105083009022C1E0B4554A9020FEE0540FF5F09011
:1050930020FDE054F045F09022BFF0742B124E78BF
:1050A3009023617400F09022BD75F0009022BDC37F
:1050B300E58235F0F582E5833400F583E0124E870F
:1050C300902361E004F0F5F0B404E19022C1740090
:1050D300F02275820075833BA3A37425124E78E0FA
:1050E300124E87227425124E787400124E87227452
:1050F30026124E78900388E0B48B1990038274AA29
:10510300F09002CFE0B41E004008757A39D277D20E
:105113001E22748B124E87227427124E78900388B6
:10512300E0B44B089003827400F0744B124E872254
:105133009003707403F012C741900370E070F7227C
:1051430090032EE054FBF0124FCC90032EE090031B
:105153002FF022900290E0B40C03025161229002DE
:10516300907400F0E4900279F0900277E0F5F0900B
:1051730003617455F0900363E0B5F000403390038E
:10518300707403F0900604E0900277F090216BE0D6
:10519300B4AA0574000251B490215CE0B4AA05746A
:1051A300000251B474000251B47403900277F07496
:1051B30000F5F0C3744135F0900362F0D218D29B2E
:1051C300F5992018FDB2B6E5F004900363F0229040
:1051D300060CE064CC700302525690060CE0645552
:1051E3006050C3900609E03401F090060AE03400F1
:1051F300F090060BE03400F0C3900606E0F5F09063
:105203000609E095F0900607E0F5F090060AE095B0
:10521300F0900608E0F5F090060BE095F020E734F7
:1052230090060C7455F09002C07414F09002BDF017
:1052330080229002BDE0701CD21CD21E900273E04B
:10524300D2E3F090060C74AAF0800990060C74CC9B
:10525300F080012222C2AFC0E0C0F0C0D0C083C042
:1052630082E8C0E0E9C0E0C084A2B792E0C0E07584
:105273008400C2B7900661E064BB7002D21C900345
:10528300E9E0B4551112A2AD306607D21ED21C025A
:1052930054A5D2AF8002C2AF9005C1E0B45503025A
:1052A30054A590060CE06455601E90060CE064CC97
:1052B300601090060CE064AA6011E55730E7030222
:1052C30054A5301E440254A51251D20254A5E56AD6
:1052D3006008C39401F56A025366856B6A90027095
:1052E300E0F5F0EEB5F00BECB57807D21EC21C0268
:1052F30054A550F7ECC32401FCEE3400FEEAC3943A
:1053030001FAEB9400FB025366900666E064557065
:10531300030253D990060CE06003201CB1EE700524
:10532300EC60408022E56A6007C39401F56A80332C
:10533300856B6AC3EA2401FAEB3400FBECC39401E6
:10534300FCEE9400FE801CE56A6007C39401F56AD5
:105353008011856B6AC3EA2401FAEB3400FBECC3CA
:105363009401FC8B8C8A8A9003E9E0B45532900255
:10537300CFE0B437005029900642E0645560219095
:10538300060DE06455600990060DE0B577188003BB
:10539300757A4BD21ED21C90060DE577F00253D3DB
:1053A30090060D7455F0201D2790060CE060032035
:1053B3001C07E5771272458005E57712737B12515E
:1053C300D290060CE064AA6007301D04D21ED21CE2
:1053D3000254A5025456201CFA9006677455F0EB4C
:1053E300B5780E900270E0F5F0EAB5F00040028067
:1053F30027E56B7009E56AC32401F56A8004156B20
:105403008016E56A90C5B193FAE56A90C4E993FB07
:10541300E56A90C67993F56B90031BE0B4000590A1
:10542300025F8003900260E0B409004002740954F3
:105433000F75F00AA4F5F0EAC395F0F58A90031B03
:10544300E06008EB9402F58C025453EB9400F58C66
:1054530002536A900667E064557019E56AB4C700A1
:1054630040089006677400F0800AE56AB43700408C
:10547300030253E2E56AB40004D21E8025E56B7093
:1054830004156A8004156B808FE56A90C5B193FAA1
:10549300E56A90C4E993FBE56A90C67993F56B02DC
:1054A300541BC2AFD0E0A2E092B7D084D0E0F9D0D1
:1054B300E0A8E0D082D083D0D0D0F0D0E0D2AF3219
:1054C300C2AFC0E0C0F0C0D0C083C082E8C0E0E992
:1054D300C0E0C084A2B792E0C0E07584009005C12B
:1054E300E0B455030256CCC2B7D2AFE55730E70359
:1054F3000256CC301F2D30522A20201E201E24E5B8
:10550300757045900270E0C39574403CE574701665
:10551300E573B40011D21E0256CC757A1ED21ED288
:1055230077C2200256CCECB5780A900270E0F5F011
:10553300EDB5F000C3EC2401FCED3400FDEAC394A7
:1055430001FAEB9400FB8018EC7003ED6012C3EAE0
:105553002401FAEB3400FBC3EC9401FCED9400FD51
:105563008B8C8A8AE577B401028015B40203025654
:105573007EB40403025681B408030256840256CC57
:10558300E564C32558F564E5653559F565E5663584
:105593005AF566C3E567255BF567E568355CF5682D
:1055A300E569355DF569C3E56A255EF56AE56B3541
:1055B3005FF56BE56C3560F56CC3E56D2561F56DE5
:1055C300E56E3562F56EE56F3563F56F7966C2108A
:1055D300C211C212C21375220075790012720B2018
:1055E3000C04D2108019C3E5649570F564E56595E4
:1055F30071F565E5669572F566E5765403F5797997
:105603006912720B200C04D2118019C3E5679570DF
:10561300F567E5689571F568E5699572F569E5766D
:10562300540C4279796C12720B200C04D21280193B
:10563300C3E56A9570F56AE56B9571F56BE56C9555
:1056430072F56CE57654304279796F12720B200C47
:1056530004D2138019C3E56D9570F56DE56E9571F0
:10566300F56EE56F9572F56FE57654C04279E522E4
:10567300540FB40F0302558330101530111B301231
:1056830021301303025583E57954C07577018019DE
:10569300E57954037577028010E579540C75770426
:1056A3008007E5795430757708F57F127245C21D7E
:1056B300E573C39401F573E5749400F574E575948B
:1056C30000F5758004D21ED277C2AFD0E0A2E0927B
:1056D300B7D084D0E0F9D0E0A8E0D082D083D0D096
:1056E300D0F0D0E0D2AF32C2AFC0E0C0F0C0D0C083
:1056F30083C082E8C0E0E9C0E0C084A2B792E0C002
:10570300E07584009005C1E0B45503025991C2B716
:10571300D2AFE55730E703025991301F333052308F
:10572300202024201E2A306203201C27E5757026C2
:10573300900270E0C39574401DE5747016E573B470
:105743000011D21E025991757A1ED21ED277C22041
:105753000259910257E29006677455F0EBB5780E43
:10576300900270E0F5F0EAB5F0004002801FED70A2
:1057730007ECC32401FC80031D8012EC90C5B19398
:10578300FAEC90C4E993FBEC90C67993FD90031B6C
:10579300E0B4000590025F8003900260E0B409006A
:1057A30040027409540F75F00AA4F5F0EAC395F0AA
:1057B300F58A90031BE0B40108EB9402F58C0257C1
:1057C300DFB40208EB940FF58C0257DFB40308EB48
:1057D300941FF58C0257DFEB9400F58C0258299047
:1057E3000667E064557017ECB4C70040089006677D
:1057F3007400F08009ECB43700400302575FECB447
:105803000005D21E025991ED70031C80041D02573E
:1058130090EC90C5B193FAEC90C4E993FBEC90C67D
:105823007993FD025790E577B401028015B4020322
:10583300025940B40403025943B40803025946020F
:105843005991E564C32558F564E5653559F565E572
:1058530066355AF566C3E567255BF567E568355C2C
:10586300F568E569355DF569C3E56A255EF56AE5C1
:105873006B355FF56BE56C3560F56CC3E56D2561E4
:10588300F56DE56E3562F56EE56F3563F56F796637
:10589300C210C211C212C2137522007579001272AE
:1058A3000B200C04D2108019C3E5649570F564E5F0
:1058B300659571F565E5669572F566E5765403F5CC
:1058C30079796912720B200C04D2118019C3E56730
:1058D3009570F567E5689571F568E5699572F56901
:1058E300E576540C4279796C12720B200C04D212B7
:1058F3008019C3E56A9570F56AE56B9571F56BE5FB
:105903006C9572F56CE57654304279796F12720BAF
:10591300200C04D2138019C3E56D9570F56DE56E07
:105923009571F56EE56F9572F56FE57654C0427922
:10593300E522540FB40F0302584530101530111BE4
:10594300301221301303025845E57954C0757701AD
:105953008019E57954037577028010E579540C7545
:1059630077048007E5795430757708F57F1272451F
:10597300C21D1277B2E573C39401F573E574940005
:10598300F574E5759400F5758004D21ED277C2AF25
:10599300D0E0A2E092B7D084D0E0F9D0E0A8E0D084
:1059A30082D083D0D0D0F0D0E0D2AF32C39003F016
:1059B300E03401F09003F1E03400F09003F2E034BE
:1059C30000F02290216EE0B45546E5757042E5740F
:1059D300B403005013C3900381E09414F0FA9003CE
:1059E30080E09400F0FB8028C39003F0E0940090E3
:1059F30003F1E094039003F2E094005013C3900387
:105A030081E03414F0FA900380E03400F0FB80006E
:105A1300222290216DE0B455F8E5757033E574B436
:105A23000300502C902273E0902275F0E574B401CA
:105A33000050089003837403F08024B402005008DC
:105A43009003837402F080179003837401F0800F36
:105A5300902274E0902275F0900383E4F08000902C
:105A6300216DE0B455359003F2E0702F9003F1E01F
:105A7300B4030050269003F1E0B4010050089003F2
:105A8300837403F08015B4020050089003837402FA
:105A9300F080089003837401F0800022C2AFC0E05D
:105AA300C0F0C0D0C083C082E8C0E0E9C0E0C084D9
:105AB300A2B792E0C0E0758400C2B7D2AF12F38FF1
:105AC30012C2769023787455F09005C1E0B4550363
:105AD300025EB5E55730E703025EB520205C201E69
:105AE30069301F66305263202160302202800790A4
:105AF300216AE0B4BB1890219BE0B4090040027412
:105B0300099002CDF090216D7400F0025B2B90069A
:105B130094E030E013C25590031AE0D2E5F0D221AD
:105B2300D266757A1B025B4DE5757021E574701DB5
:105B3300E573B40018D21E025EB590215A7455F075
:105B4300757A1EC220757A1ED221025EB512310B00
